{
  "_format": "hh-sol-artifact-1",
  "contractName": "Voting",
  "sourceName": "contracts/Voting.sol",
  "abi": [
    {
      "anonymous": false,
      "inputs": [
        {
          "indexed": true,
          "internalType": "uint256",
          "name": "pollId",
          "type": "uint256"
        },
        {
          "indexed": false,
          "internalType": "uint256",
          "name": "optionId",
          "type": "uint256"
        },
        {
          "indexed": false,
          "internalType": "string",
          "name": "option",
          "type": "string"
        }
      ],
      "name": "OptionAdded",
      "type": "event"
    },
    {
      "anonymous": false,
      "inputs": [
        {
          "indexed": true,
          "internalType": "address",
          "name": "previousOwner",
          "type": "address"
        },
        {
          "indexed": true,
          "internalType": "address",
          "name": "newOwner",
          "type": "address"
        }
      ],
      "name": "OwnershipTransferred",
      "type": "event"
    },
    {
      "anonymous": false,
      "inputs": [
        {
          "indexed": true,
          "internalType": "uint256",
          "name": "pollId",
          "type": "uint256"
        }
      ],
      "name": "PollClosed",
      "type": "event"
    },
    {
      "anonymous": false,
      "inputs": [
        {
          "indexed": true,
          "internalType": "uint256",
          "name": "pollId",
          "type": "uint256"
        },
        {
          "indexed": false,
          "internalType": "string",
          "name": "title",
          "type": "string"
        }
      ],
      "name": "PollCreated",
      "type": "event"
    },
    {
      "anonymous": false,
      "inputs": [
        {
          "indexed": true,
          "internalType": "uint256",
          "name": "pollId",
          "type": "uint256"
        },
        {
          "indexed": false,
          "internalType": "uint256",
          "name": "optionId",
          "type": "uint256"
        },
        {
          "indexed": true,
          "internalType": "address",
          "name": "voter",
          "type": "address"
        }
      ],
      "name": "VoteCast",
      "type": "event"
    },
    {
      "inputs": [
        {
          "internalType": "uint256",
          "name": "pollId",
          "type": "uint256"
        }
      ],
      "name": "closePoll",
      "outputs": [],
      "stateMutability": "nonpayable",
      "type": "function"
    },
    {
      "inputs": [
        {
          "internalType": "string",
          "name": "title",
          "type": "string"
        },
        {
          "internalType": "string[]",
          "name": "options",
          "type": "string[]"
        }
      ],
      "name": "createPoll",
      "outputs": [
        {
          "internalType": "uint256",
          "name": "",
          "type": "uint256"
        }
      ],
      "stateMutability": "nonpayable",
      "type": "function"
    },
    {
      "inputs": [
        {
          "internalType": "uint256",
          "name": "pollId",
          "type": "uint256"
        }
      ],
      "name": "getOptions",
      "outputs": [
        {
          "internalType": "string[]",
          "name": "",
          "type": "string[]"
        }
      ],
      "stateMutability": "view",
      "type": "function"
    },
    {
      "inputs": [
        {
          "internalType": "uint256",
          "name": "pollId",
          "type": "uint256"
        }
      ],
      "name": "getTallies",
      "outputs": [
        {
          "internalType": "uint256[]",
          "name": "",
          "type": "uint256[]"
        }
      ],
      "stateMutability": "view",
      "type": "function"
    },
    {
      "inputs": [
        {
          "internalType": "uint256",
          "name": "pollId",
          "type": "uint256"
        }
      ],
      "name": "getTotalVotes",
      "outputs": [
        {
          "internalType": "uint256",
          "name": "",
          "type": "uint256"
        }
      ],
      "stateMutability": "view",
      "type": "function"
    },
    {
      "inputs": [
        {
          "internalType": "uint256",
          "name": "pollId",
          "type": "uint256"
        },
        {
          "internalType": "uint256",
          "name": "optionId",
          "type": "uint256"
        }
      ],
      "name": "getVotes",
      "outputs": [
        {
          "internalType": "uint256",
          "name": "",
          "type": "uint256"
        }
      ],
      "stateMutability": "view",
      "type": "function"
    },
    {
      "inputs": [],
      "name": "owner",
      "outputs": [
        {
          "internalType": "address",
          "name": "",
          "type": "address"
        }
      ],
      "stateMutability": "view",
      "type": "function"
    },
    {
      "inputs": [
        {
          "internalType": "uint256",
          "name": "",
          "type": "uint256"
        }
      ],
      "name": "polls",
      "outputs": [
        {
          "internalType": "string",
          "name": "title",
          "type": "string"
        },
        {
          "internalType": "bool",
          "name": "open",
          "type": "bool"
        },
        {
          "internalType": "uint256",
          "name": "totalVotes",
          "type": "uint256"
        }
      ],
      "stateMutability": "view",
      "type": "function"
    },
    {
      "inputs": [],
      "name": "renounceOwnership",
      "outputs": [],
      "stateMutability": "nonpayable",
      "type": "function"
    },
    {
      "inputs": [
        {
          "internalType": "address",
          "name": "newOwner",
          "type": "address"
        }
      ],
      "name": "transferOwnership",
      "outputs": [],
      "stateMutability": "nonpayable",
      "type": "function"
    },
    {
      "inputs": [
        {
          "internalType": "uint256",
          "name": "pollId",
          "type": "uint256"
        },
        {
          "internalType": "uint256",
          "name": "optionId",
          "type": "uint256"
        }
      ],
      "name": "vote",
      "outputs": [],
      "stateMutability": "nonpayable",
      "type": "function"
    }
  ],
  "bytecode": "0x608060405234801561001057600080fd5b5061002d61002261003960201b60201c565b61004160201b60201c565b60018081905550610105565b600033905090565b60008060009054906101000a900473ffffffffffffffffffffffffffffffffffffffff169050816000806101000a81548173ffffffffffffffffffffffffffffffffffffffff021916908373ffffffffffffffffffffffffffffffffffffffff1602179055508173ffffffffffffffffffffffffffffffffffffffff168173ffffffffffffffffffffffffffffffffffffffff167f8be0079c531659141344cd1fd0a4f28419497f9722a3daafe3b4186f6b6457e060405160405180910390a35050565b611c3b806101146000396000f3fe608060405234801561001057600080fd5b50600436106100a95760003560e01c80638da5cb5b116100715780638da5cb5b1461017857806391f36633146101965780639534e637146101c6578063ac2f0074146101e2578063b384abef14610214578063f2fde38b14610230576100a9565b80632ce35e11146100ae5780636ce0a9e0146100de578063715018a61461010e5780637e3d71c3146101185780638915b3fb14610148575b600080fd5b6100c860048036038101906100c39190610e44565b61024c565b6040516100d59190610e80565b60405180910390f35b6100f860048036038101906100f39190610e44565b6102c2565b6040516101059190610f59565b60405180910390f35b6101166103ea565b005b610132600480360381019061012d9190611036565b6103fe565b60405161013f9190610e80565b60405180910390f35b610162600480360381019061015d9190610e44565b6105ba565b60405161016f9190611209565b60405180910390f35b6101806106ff565b60405161018d919061126c565b60405180910390f35b6101b060048036038101906101ab9190611287565b610728565b6040516101bd9190610e80565b60405180910390f35b6101e060048036038101906101db9190610e44565b6107b0565b005b6101fc60048036038101906101f79190610e44565b610873565b60405161020b9392919061132c565b60405180910390f35b61022e60048036038101906102299190611287565b610942565b005b61024a60048036038101906102459190611396565b610bdf565b005b60006002805490508210610295576040517f08c379a000000000000000000000000000000000000000000000000000000000815260040161028c9061140f565b60405180910390fd5b600282815481106102a9576102a861142f565b5b9060005260206000209060060201600201549050919050565b6060600280549050821061030b576040517f08c379a00000000000000000000000000000000000000000000000000000000081526004016103029061140f565b60405180910390fd5b6000600283815481106103215761032061142f565b5b906000526020600020906006020190506000816005018054905067ffffffffffffffff8111156103545761035361145e565b5b6040519080825280602002602001820160405280156103825781602001602082028036833780820191505090505b50905060005b82600501805490508110156103df57826003016000828152602001908152602001600020548282815181106103c0576103bf61142f565b5b60200260200101818152505080806103d7906114bc565b915050610388565b508092505050919050565b6103f2610c62565b6103fc6000610ce0565b565b6000610408610c62565b600060026001816001815401808255809150500390600052602060002090600602019050858582600001918261043f92919061171b565b5060018160010160006101000a81548160ff02191690831515021790555060005b8484905081101561055157816005018585838181106104825761048161142f565b5b905060200281019061049491906117fa565b909180600181540180825580915050600190039060005260206000200160009091929091929091929091925091826104cd92919061171b565b5060016002805490506104e0919061185d565b7f0946129913e1d347e0148279910cacb866da59759e7914832ee7e7b69ac15001828787858181106105155761051461142f565b5b905060200281019061052791906117fa565b604051610536939291906118cd565b60405180910390a28080610549906114bc565b915050610460565b506001600280549050610564919061185d565b7f65d5ac2bf1bca69566bef1affdfca5bb37b9577fc0b3af4c7c4638225e67b39c87876040516105959291906118ff565b60405180910390a260016002805490506105af919061185d565b915050949350505050565b60606002805490508210610603576040517f08c379a00000000000000000000000000000000000000000000000000000000081526004016105fa9061140f565b60405180910390fd5b600282815481106106175761061661142f565b5b9060005260206000209060060201600501805480602002602001604051908101604052809291908181526020016000905b828210156106f45783829060005260206000200180546106679061153e565b80601f01602080910402602001604051908101604052809291908181526020018280546106939061153e565b80156106e05780601f106106b5576101008083540402835291602001916106e0565b820191906000526020600020905b8154815290600101906020018083116106c357829003601f168201915b505050505081526020019060010190610648565b505050509050919050565b60008060009054906101000a900473ffffffffffffffffffffffffffffffffffffffff16905090565b60006002805490508310610771576040517f08c379a00000000000000000000000000000000000000000000000000000000081526004016107689061140f565b60405180910390fd5b600283815481106107855761078461142f565b5b9060005260206000209060060201600301600083815260200190815260200160002054905092915050565b6107b8610c62565b60028054905081106107ff576040517f08c379a00000000000000000000000000000000000000000000000000000000081526004016107f69061140f565b60405180910390fd5b6000600282815481106108155761081461142f565b5b9060005260206000209060060201905060008160010160006101000a81548160ff021916908315150217905550817f703c67c157a1afb7d386ce5212ee88bf0a690bca998060e9595ebdfd747100ce60405160405180910390a25050565b6002818154811061088357600080fd5b90600052602060002090600602016000915090508060000180546108a69061153e565b80601f01602080910402602001604051908101604052809291908181526020018280546108d29061153e565b801561091f5780601f106108f45761010080835404028352916020019161091f565b820191906000526020600020905b81548152906001019060200180831161090257829003601f168201915b5050505050908060010160009054906101000a900460ff16908060020154905083565b61094a610da4565b6002805490508210610991576040517f08c379a00000000000000000000000000000000000000000000000000000000081526004016109889061140f565b60405180910390fd5b6000600283815481106109a7576109a661142f565b5b906000526020600020906006020190508060010160009054906101000a900460ff16610a08576040517f08c379a00000000000000000000000000000000000000000000000000000000081526004016109ff9061196f565b60405180910390fd5b8060040160003373ffffffffffffffffffffffffffffffffffffffff1673ffffffffffffffffffffffffffffffffffffffff16815260200190815260200160002060009054906101000a900460ff1615610a97576040517f08c379a0000000000000000000000000000000000000000000000000000000008152600401610a8e906119db565b60405180910390fd5b80600501805490508210610ae0576040517f08c379a0000000000000000000000000000000000000000000000000000000008152600401610ad790611a47565b60405180910390fd5b60018160030160008481526020019081526020016000206000828254610b069190611a67565b925050819055506001816002016000828254610b229190611a67565b9250508190555060018160040160003373ffffffffffffffffffffffffffffffffffffffff1673ffffffffffffffffffffffffffffffffffffffff16815260200190815260200160002060006101000a81548160ff0219169083151502179055503373ffffffffffffffffffffffffffffffffffffffff16837f7fe1d4e6b34e228b5dc059fcdc037c71b216fb2417f47c171e505144a5e4f5fc84604051610bca9190610e80565b60405180910390a350610bdb610df3565b5050565b610be7610c62565b600073ffffffffffffffffffffffffffffffffffffffff168173ffffffffffffffffffffffffffffffffffffffff1603610c56576040517f08c379a0000000000000000000000000000000000000000000000000000000008152600401610c4d90611b0d565b60405180910390fd5b610c5f81610ce0565b50565b610c6a610dfc565b73ffffffffffffffffffffffffffffffffffffffff16610c886106ff565b73ffffffffffffffffffffffffffffffffffffffff1614610cde576040517f08c379a0000000000000000000000000000000000000000000000000000000008152600401610cd590611b79565b60405180910390fd5b565b60008060009054906101000a900473ffffffffffffffffffffffffffffffffffffffff169050816000806101000a81548173ffffffffffffffffffffffffffffffffffffffff021916908373ffffffffffffffffffffffffffffffffffffffff1602179055508173ffffffffffffffffffffffffffffffffffffffff168173ffffffffffffffffffffffffffffffffffffffff167f8be0079c531659141344cd1fd0a4f28419497f9722a3daafe3b4186f6b6457e060405160405180910390a35050565b600260015403610de9576040517f08c379a0000000000000000000000000000000000000000000000000000000008152600401610de090611be5565b60405180910390fd5b6002600181905550565b60018081905550565b600033905090565b600080fd5b600080fd5b6000819050919050565b610e2181610e0e565b8114610e2c57600080fd5b50565b600081359050610e3e81610e18565b92915050565b600060208284031215610e5a57610e59610e04565b5b6000610e6884828501610e2f565b91505092915050565b610e7a81610e0e565b82525050565b6000602082019050610e956000830184610e71565b92915050565b600081519050919050565b600082825260208201905092915050565b6000819050602082019050919050565b610ed081610e0e565b82525050565b6000610ee28383610ec7565b60208301905092915050565b6000602082019050919050565b6000610f0682610e9b565b610f108185610ea6565b9350610f1b83610eb7565b8060005b83811015610f4c578151610f338882610ed6565b9750610f3e83610eee565b925050600181019050610f1f565b5085935050505092915050565b60006020820190508181036000830152610f738184610efb565b905092915050565b600080fd5b600080fd5b600080fd5b60008083601f840112610fa057610f9f610f7b565b5b8235905067ffffffffffffffff811115610fbd57610fbc610f80565b5b602083019150836001820283011115610fd957610fd8610f85565b5b9250929050565b60008083601f840112610ff657610ff5610f7b565b5b8235905067ffffffffffffffff81111561101357611012610f80565b5b60208301915083602082028301111561102f5761102e610f85565b5b9250929050565b600080600080604085870312156110505761104f610e04565b5b600085013567ffffffffffffffff81111561106e5761106d610e09565b5b61107a87828801610f8a565b9450945050602085013567ffffffffffffffff81111561109d5761109c610e09565b5b6110a987828801610fe0565b925092505092959194509250565b600081519050919050565b600082825260208201905092915050565b6000819050602082019050919050565b600081519050919050565b600082825260208201905092915050565b60005b8381101561111d578082015181840152602081019050611102565b60008484015250505050565b6000601f19601f8301169050919050565b6000611145826110e3565b61114f81856110ee565b935061115f8185602086016110ff565b61116881611129565b840191505092915050565b600061117f838361113a565b905092915050565b6000602082019050919050565b600061119f826110b7565b6111a981856110c2565b9350836020820285016111bb856110d3565b8060005b858110156111f757848403895281516111d88582611173565b94506111e383611187565b925060208a019950506001810190506111bf565b50829750879550505050505092915050565b600060208201905081810360008301526112238184611194565b905092915050565b600073ffffffffffffffffffffffffffffffffffffffff82169050919050565b60006112568261122b565b9050919050565b6112668161124b565b82525050565b6000602082019050611281600083018461125d565b92915050565b6000806040838503121561129e5761129d610e04565b5b60006112ac85828601610e2f565b92505060206112bd85828601610e2f565b9150509250929050565b600082825260208201905092915050565b60006112e3826110e3565b6112ed81856112c7565b93506112fd8185602086016110ff565b61130681611129565b840191505092915050565b60008115159050919050565b61132681611311565b82525050565b6000606082019050818103600083015261134681866112d8565b9050611355602083018561131d565b6113626040830184610e71565b949350505050565b6113738161124b565b811461137e57600080fd5b50565b6000813590506113908161136a565b92915050565b6000602082840312156113ac576113ab610e04565b5b60006113ba84828501611381565b91505092915050565b7f496e76616c696420706f6c6c0000000000000000000000000000000000000000600082015250565b60006113f9600c836112c7565b9150611404826113c3565b602082019050919050565b60006020820190508181036000830152611428816113ec565b9050919050565b7f4e487b7100000000000000000000000000000000000000000000000000000000600052603260045260246000fd5b7f4e487b7100000000000000000000000000000000000000000000000000000000600052604160045260246000fd5b7f4e487b7100000000000000000000000000000000000000000000000000000000600052601160045260246000fd5b60006114c782610e0e565b91507fffffffffffffffffffffffffffffffffffffffffffffffffffffffffffffffff82036114f9576114f861148d565b5b600182019050919050565b600082905092915050565b7f4e487b7100000000000000000000000000000000000000000000000000000000600052602260045260246000fd5b6000600282049050600182168061155657607f821691505b6020821081036115695761156861150f565b5b50919050565b60008190508160005260206000209050919050565b60006020601f8301049050919050565b600082821b905092915050565b6000600883026115d17fffffffffffffffffffffffffffffffffffffffffffffffffffffffffffffffff82611594565b6115db8683611594565b95508019841693508086168417925050509392505050565b6000819050919050565b600061161861161361160e84610e0e565b6115f3565b610e0e565b9050919050565b6000819050919050565b611632836115fd565b61164661163e8261161f565b8484546115a1565b825550505050565b600090565b61165b61164e565b611666818484611629565b505050565b5b8181101561168a5761167f600082611653565b60018101905061166c565b5050565b601f8211156116cf576116a08161156f565b6116a984611584565b810160208510156116b8578190505b6116cc6116c485611584565b83018261166b565b50505b505050565b600082821c905092915050565b60006116f2600019846008026116d4565b1980831691505092915050565b600061170b83836116e1565b9150826002028217905092915050565b6117258383611504565b67ffffffffffffffff81111561173e5761173d61145e565b5b611748825461153e565b61175382828561168e565b6000601f8311600181146117825760008415611770578287013590505b61177a85826116ff565b8655506117e2565b601f1984166117908661156f565b60005b828110156117b857848901358255600182019150602085019450602081019050611793565b868310156117d557848901356117d1601f8916826116e1565b8355505b6001600288020188555050505b50505050505050565b600080fd5b600080fd5b600080fd5b60008083356001602003843603038112611817576118166117eb565b5b80840192508235915067ffffffffffffffff821115611839576118386117f0565b5b602083019250600182023603831315611855576118546117f5565b5b509250929050565b600061186882610e0e565b915061187383610e0e565b925082820390508181111561188b5761188a61148d565b5b92915050565b82818337600083830152505050565b60006118ac83856112c7565b93506118b9838584611891565b6118c283611129565b840190509392505050565b60006040820190506118e26000830186610e71565b81810360208301526118f58184866118a0565b9050949350505050565b6000602082019050818103600083015261191a8184866118a0565b90509392505050565b7f506f6c6c20697320636c6f736564000000000000000000000000000000000000600082015250565b6000611959600e836112c7565b915061196482611923565b602082019050919050565b600060208201905081810360008301526119888161194c565b9050919050565b7f416c726561647920766f74656400000000000000000000000000000000000000600082015250565b60006119c5600d836112c7565b91506119d08261198f565b602082019050919050565b600060208201905081810360008301526119f4816119b8565b9050919050565b7f496e76616c6964206f7074696f6e000000000000000000000000000000000000600082015250565b6000611a31600e836112c7565b9150611a3c826119fb565b602082019050919050565b60006020820190508181036000830152611a6081611a24565b9050919050565b6000611a7282610e0e565b9150611a7d83610e0e565b9250828201905080821115611a9557611a9461148d565b5b92915050565b7f4f776e61626c653a206e6577206f776e657220697320746865207a65726f206160008201527f6464726573730000000000000000000000000000000000000000000000000000602082015250565b6000611af76026836112c7565b9150611b0282611a9b565b604082019050919050565b60006020820190508181036000830152611b2681611aea565b9050919050565b7f4f776e61626c653a2063616c6c6572206973206e6f7420746865206f776e6572600082015250565b6000611b636020836112c7565b9150611b6e82611b2d565b602082019050919050565b60006020820190508181036000830152611b9281611b56565b9050919050565b7f5265656e7472616e637947756172643a207265656e7472616e742063616c6c00600082015250565b6000611bcf601f836112c7565b9150611bda82611b99565b602082019050919050565b60006020820190508181036000830152611bfe81611bc2565b905091905056fea26469706673582212206bf5dce9d461299c5e61bd43464629c33a0a19b2ce61cb2a2e5193af19a4430a64736f6c63430008130033",
  "linkReferences": {},
  "deployedLinkReferences": {}
}