{"contracts/Voting.sol":{"Voting":{"abi":[{"anonymous":false,"inputs":[{"indexed":true,"internalType":"uint256","name":"pollId","type":"uint256"},{"indexed":false,"internalType":"uint256","name":"optionId","type":"uint256"},{"indexed":false,"internalType":"string","name":"option","type":"string"}],"name":"OptionAdded","type":"event"},{"anonymous":false,"inputs":[{"indexed":true,"internalType":"address","name":"previousOwner","type":"address"},{"indexed":true,"internalType":"address","name":"newOwner","type":"address"}],"name":"OwnershipTransferred","type":"event"},{"anonymous":false,"inputs":[{"indexed":true,"internalType":"uint256","name":"pollId","type":"uint256"}],"name":"PollClosed","type":"event"},{"anonymous":false,"inputs":[{"indexed":true,"internalType":"uint256","name":"pollId","type":"uint256"},{"indexed":false,"internalType":"string","name":"title","type":"string"}],"name":"PollCreated","type":"event"},{"anonymous":false,"inputs":[{"indexed":true,"internalType":"uint256","name":"pollId","type":"uint256"},{"indexed":false,"internalType":"uint256","name":"optionId","type":"uint256"},{"indexed":true,"internalType":"address","name":"voter","type":"address"}],"name":"VoteCast","type":"event"},{"inputs":[{"internalType":"uint256","name":"pollId","type":"uint256"}],"name":"closePoll","outputs":[],"stateMutability":"nonpayable","type":"function"},{"inputs":[{"internalType":"string","name":"title","type":"string"},{"internalType":"string[]","name":"options","type":"string[]"}],"name":"createPoll","outputs":[{"internalType":"uint256","name":"","type":"uint256"}],"stateMutability":"nonpayable","type":"function"},{"inputs":[{"internalType":"uint256","name":"pollId","type":"uint256"}],"name":"getOptions","outputs":[{"internalType":"string[]","name":"","type":"string[]"}],"stateMutability":"view","type":"function"},{"inputs":[{"internalType":"uint256","name":"pollId","type":"uint256"}],"name":"getTallies","outputs":[{"internalType":"uint256[]","name":"","type":"uint256[]"}],"stateMutability":"view","type":"function"},{"inputs":[{"internalType":"uint256","name":"pollId","type":"uint256"}],"name":"getTotalVotes","outputs":[{"internalType":"uint256","name":"","type":"uint256"}],"stateMutability":"view","type":"function"},{"inputs":[{"internalType":"uint256","name":"pollId","type":"uint256"},{"internalType":"uint256","name":"optionId","type":"uint256"}],"name":"getVotes","outputs":[{"internalType":"uint256","name":"","type":"uint256"}],"stateMutability":"view","type":"function"},{"inputs":[],"name":"owner","outputs":[{"internalType":"address","name":"","type":"address"}],"stateMutability":"view","type":"function"},{"inputs":[{"internalType":"uint256","name":"","type":"uint256"}],"name":"polls","outputs":[{"internalType":"string","name":"title","type":"string"},{"internalType":"bool","name":"open","type":"bool"},{"internalType":"uint256","name":"totalVotes","type":"uint256"}],"stateMutability":"view","type":"function"},{"inputs":[],"name":"renounceOwnership","outputs":[],"stateMutability":"nonpayable","type":"function"},{"inputs":[{"internalType":"address","name":"newOwner","type":"address"}],"name":"transferOwnership","outputs":[],"stateMutability":"nonpayable","type":"function"},{"inputs":[{"internalType":"uint256","name":"pollId","type":"uint256"},{"internalType":"uint256","name":"optionId","type":"uint256"}],"name":"vote","outputs":[],"stateMutability":"nonpayable","type":"function"}],"evm":{"bytecode":{"linkReferences":{},"object":"608060405234801561001057600080fd5b5061002d61002261003960201b60201c565b61004160201b60201c565b60018081905550610105565b600033905090565b60008060009054906101000a900473ffffffffffffffffffffffffffffffffffffffff169050816000806101000a81548173ffffffffffffffffffffffffffffffffffffffff021916908373ffffffffffffffffffffffffffffffffffffffff1602179055508173ffffffffffffffffffffffffffffffffffffffff168173ffffffffffffffffffffffffffffffffffffffff167f8be0079c531659141344cd1fd0a4f28419497f9722a3daafe3b4186f6b6457e060405160405180910390a35050565b611c3b806101146000396000f3fe608060405234801561001057600080fd5b50600436106100a95760003560e01c80638da5cb5b116100715780638da5cb5b1461017857806391f36633146101965780639534e637146101c6578063ac2f0074146101e2578063b384abef14610214578063f2fde38b14610230576100a9565b80632ce35e11146100ae5780636ce0a9e0146100de578063715018a61461010e5780637e3d71c3146101185780638915b3fb14610148575b600080fd5b6100c860048036038101906100c39190610e44565b61024c565b6040516100d59190610e80565b60405180910390f35b6100f860048036038101906100f39190610e44565b6102c2565b6040516101059190610f59565b60405180910390f35b6101166103ea565b005b610132600480360381019061012d9190611036565b6103fe565b60405161013f9190610e80565b60405180910390f35b610162600480360381019061015d9190610e44565b6105ba565b60405161016f9190611209565b60405180910390f35b6101806106ff565b60405161018d919061126c565b60405180910390f35b6101b060048036038101906101ab9190611287565b610728565b6040516101bd9190610e80565b60405180910390f35b6101e060048036038101906101db9190610e44565b6107b0565b005b6101fc60048036038101906101f79190610e44565b610873565b60405161020b9392919061132c565b60405180910390f35b61022e60048036038101906102299190611287565b610942565b005b61024a60048036038101906102459190611396565b610bdf565b005b60006002805490508210610295576040517f08c379a000000000000000000000000000000000000000000000000000000000815260040161028c9061140f565b60405180910390fd5b600282815481106102a9576102a861142f565b5b9060005260206000209060060201600201549050919050565b6060600280549050821061030b576040517f08c379a00000000000000000000000000000000000000000000000000000000081526004016103029061140f565b60405180910390fd5b6000600283815481106103215761032061142f565b5b906000526020600020906006020190506000816005018054905067ffffffffffffffff8111156103545761035361145e565b5b6040519080825280602002602001820160405280156103825781602001602082028036833780820191505090505b50905060005b82600501805490508110156103df57826003016000828152602001908152602001600020548282815181106103c0576103bf61142f565b5b60200260200101818152505080806103d7906114bc565b915050610388565b508092505050919050565b6103f2610c62565b6103fc6000610ce0565b565b6000610408610c62565b600060026001816001815401808255809150500390600052602060002090600602019050858582600001918261043f92919061171b565b5060018160010160006101000a81548160ff02191690831515021790555060005b8484905081101561055157816005018585838181106104825761048161142f565b5b905060200281019061049491906117fa565b909180600181540180825580915050600190039060005260206000200160009091929091929091929091925091826104cd92919061171b565b5060016002805490506104e0919061185d565b7f0946129913e1d347e0148279910cacb866da59759e7914832ee7e7b69ac15001828787858181106105155761051461142f565b5b905060200281019061052791906117fa565b604051610536939291906118cd565b60405180910390a28080610549906114bc565b915050610460565b506001600280549050610564919061185d565b7f65d5ac2bf1bca69566bef1affdfca5bb37b9577fc0b3af4c7c4638225e67b39c87876040516105959291906118ff565b60405180910390a260016002805490506105af919061185d565b915050949350505050565b60606002805490508210610603576040517f08c379a00000000000000000000000000000000000000000000000000000000081526004016105fa9061140f565b60405180910390fd5b600282815481106106175761061661142f565b5b9060005260206000209060060201600501805480602002602001604051908101604052809291908181526020016000905b828210156106f45783829060005260206000200180546106679061153e565b80601f01602080910402602001604051908101604052809291908181526020018280546106939061153e565b80156106e05780601f106106b5576101008083540402835291602001916106e0565b820191906000526020600020905b8154815290600101906020018083116106c357829003601f168201915b505050505081526020019060010190610648565b505050509050919050565b60008060009054906101000a900473ffffffffffffffffffffffffffffffffffffffff16905090565b60006002805490508310610771576040517f08c379a00000000000000000000000000000000000000000000000000000000081526004016107689061140f565b60405180910390fd5b600283815481106107855761078461142f565b5b9060005260206000209060060201600301600083815260200190815260200160002054905092915050565b6107b8610c62565b60028054905081106107ff576040517f08c379a00000000000000000000000000000000000000000000000000000000081526004016107f69061140f565b60405180910390fd5b6000600282815481106108155761081461142f565b5b9060005260206000209060060201905060008160010160006101000a81548160ff021916908315150217905550817f703c67c157a1afb7d386ce5212ee88bf0a690bca998060e9595ebdfd747100ce60405160405180910390a25050565b6002818154811061088357600080fd5b90600052602060002090600602016000915090508060000180546108a69061153e565b80601f01602080910402602001604051908101604052809291908181526020018280546108d29061153e565b801561091f5780601f106108f45761010080835404028352916020019161091f565b820191906000526020600020905b81548152906001019060200180831161090257829003601f168201915b5050505050908060010160009054906101000a900460ff16908060020154905083565b61094a610da4565b6002805490508210610991576040517f08c379a00000000000000000000000000000000000000000000000000000000081526004016109889061140f565b60405180910390fd5b6000600283815481106109a7576109a661142f565b5b906000526020600020906006020190508060010160009054906101000a900460ff16610a08576040517f08c379a00000000000000000000000000000000000000000000000000000000081526004016109ff9061196f565b60405180910390fd5b8060040160003373ffffffffffffffffffffffffffffffffffffffff1673ffffffffffffffffffffffffffffffffffffffff16815260200190815260200160002060009054906101000a900460ff1615610a97576040517f08c379a0000000000000000000000000000000000000000000000000000000008152600401610a8e906119db565b60405180910390fd5b80600501805490508210610ae0576040517f08c379a0000000000000000000000000000000000000000000000000000000008152600401610ad790611a47565b60405180910390fd5b60018160030160008481526020019081526020016000206000828254610b069190611a67565b925050819055506001816002016000828254610b229190611a67565b9250508190555060018160040160003373ffffffffffffffffffffffffffffffffffffffff1673ffffffffffffffffffffffffffffffffffffffff16815260200190815260200160002060006101000a81548160ff0219169083151502179055503373ffffffffffffffffffffffffffffffffffffffff16837f7fe1d4e6b34e228b5dc059fcdc037c71b216fb2417f47c171e505144a5e4f5fc84604051610bca9190610e80565b60405180910390a350610bdb610df3565b5050565b610be7610c62565b600073ffffffffffffffffffffffffffffffffffffffff168173ffffffffffffffffffffffffffffffffffffffff1603610c56576040517f08c379a0000000000000000000000000000000000000000000000000000000008152600401610c4d90611b0d565b60405180910390fd5b610c5f81610ce0565b50565b610c6a610dfc565b73ffffffffffffffffffffffffffffffffffffffff16610c886106ff565b73ffffffffffffffffffffffffffffffffffffffff1614610cde576040517f08c379a0000000000000000000000000000000000000000000000000000000008152600401610cd590611b79565b60405180910390fd5b565b60008060009054906101000a900473ffffffffffffffffffffffffffffffffffffffff169050816000806101000a81548173ffffffffffffffffffffffffffffffffffffffff021916908373ffffffffffffffffffffffffffffffffffffffff1602179055508173ffffffffffffffffffffffffffffffffffffffff168173ffffffffffffffffffffffffffffffffffffffff167f8be0079c531659141344cd1fd0a4f28419497f9722a3daafe3b4186f6b6457e060405160405180910390a35050565b600260015403610de9576040517f08c379a0000000000000000000000000000000000000000000000000000000008152600401610de090611be5565b60405180910390fd5b6002600181905550565b60018081905550565b600033905090565b600080fd5b600080fd5b6000819050919050565b610e2181610e0e565b8114610e2c57600080fd5b50565b600081359050610e3e81610e18565b92915050565b600060208284031215610e5a57610e59610e04565b5b6000610e6884828501610e2f565b91505092915050565b610e7a81610e0e565b82525050565b6000602082019050610e956000830184610e71565b92915050565b600081519050919050565b600082825260208201905092915050565b6000819050602082019050919050565b610ed081610e0e565b82525050565b6000610ee28383610ec7565b60208301905092915050565b6000602082019050919050565b6000610f0682610e9b565b610f108185610ea6565b9350610f1b83610eb7565b8060005b83811015610f4c578151610f338882610ed6565b9750610f3e83610eee565b925050600181019050610f1f565b5085935050505092915050565b60006020820190508181036000830152610f738184610efb565b905092915050565b600080fd5b600080fd5b600080fd5b60008083601f840112610fa057610f9f610f7b565b5b8235905067ffffffffffffffff811115610fbd57610fbc610f80565b5b602083019150836001820283011115610fd957610fd8610f85565b5b9250929050565b60008083601f840112610ff657610ff5610f7b565b5b8235905067ffffffffffffffff81111561101357611012610f80565b5b60208301915083602082028301111561102f5761102e610f85565b5b9250929050565b600080600080604085870312156110505761104f610e04565b5b600085013567ffffffffffffffff81111561106e5761106d610e09565b5b61107a87828801610f8a565b9450945050602085013567ffffffffffffffff81111561109d5761109c610e09565b5b6110a987828801610fe0565b925092505092959194509250565b600081519050919050565b600082825260208201905092915050565b6000819050602082019050919050565b600081519050919050565b600082825260208201905092915050565b60005b8381101561111d578082015181840152602081019050611102565b60008484015250505050565b6000601f19601f8301169050919050565b6000611145826110e3565b61114f81856110ee565b935061115f8185602086016110ff565b61116881611129565b840191505092915050565b600061117f838361113a565b905092915050565b6000602082019050919050565b600061119f826110b7565b6111a981856110c2565b9350836020820285016111bb856110d3565b8060005b858110156111f757848403895281516111d88582611173565b94506111e383611187565b925060208a019950506001810190506111bf565b50829750879550505050505092915050565b600060208201905081810360008301526112238184611194565b905092915050565b600073ffffffffffffffffffffffffffffffffffffffff82169050919050565b60006112568261122b565b9050919050565b6112668161124b565b82525050565b6000602082019050611281600083018461125d565b92915050565b6000806040838503121561129e5761129d610e04565b5b60006112ac85828601610e2f565b92505060206112bd85828601610e2f565b9150509250929050565b600082825260208201905092915050565b60006112e3826110e3565b6112ed81856112c7565b93506112fd8185602086016110ff565b61130681611129565b840191505092915050565b60008115159050919050565b61132681611311565b82525050565b6000606082019050818103600083015261134681866112d8565b9050611355602083018561131d565b6113626040830184610e71565b949350505050565b6113738161124b565b811461137e57600080fd5b50565b6000813590506113908161136a565b92915050565b6000602082840312156113ac576113ab610e04565b5b60006113ba84828501611381565b91505092915050565b7f496e76616c696420706f6c6c0000000000000000000000000000000000000000600082015250565b60006113f9600c836112c7565b9150611404826113c3565b602082019050919050565b60006020820190508181036000830152611428816113ec565b9050919050565b7f4e487b7100000000000000000000000000000000000000000000000000000000600052603260045260246000fd5b7f4e487b7100000000000000000000000000000000000000000000000000000000600052604160045260246000fd5b7f4e487b7100000000000000000000000000000000000000000000000000000000600052601160045260246000fd5b60006114c782610e0e565b91507fffffffffffffffffffffffffffffffffffffffffffffffffffffffffffffffff82036114f9576114f861148d565b5b600182019050919050565b600082905092915050565b7f4e487b7100000000000000000000000000000000000000000000000000000000600052602260045260246000fd5b6000600282049050600182168061155657607f821691505b6020821081036115695761156861150f565b5b50919050565b60008190508160005260206000209050919050565b60006020601f8301049050919050565b600082821b905092915050565b6000600883026115d17fffffffffffffffffffffffffffffffffffffffffffffffffffffffffffffffff82611594565b6115db8683611594565b95508019841693508086168417925050509392505050565b6000819050919050565b600061161861161361160e84610e0e565b6115f3565b610e0e565b9050919050565b6000819050919050565b611632836115fd565b61164661163e8261161f565b8484546115a1565b825550505050565b600090565b61165b61164e565b611666818484611629565b505050565b5b8181101561168a5761167f600082611653565b60018101905061166c565b5050565b601f8211156116cf576116a08161156f565b6116a984611584565b810160208510156116b8578190505b6116cc6116c485611584565b83018261166b565b50505b505050565b600082821c905092915050565b60006116f2600019846008026116d4565b1980831691505092915050565b600061170b83836116e1565b9150826002028217905092915050565b6117258383611504565b67ffffffffffffffff81111561173e5761173d61145e565b5b611748825461153e565b61175382828561168e565b6000601f8311600181146117825760008415611770578287013590505b61177a85826116ff565b8655506117e2565b601f1984166117908661156f565b60005b828110156117b857848901358255600182019150602085019450602081019050611793565b868310156117d557848901356117d1601f8916826116e1565b8355505b6001600288020188555050505b50505050505050565b600080fd5b600080fd5b600080fd5b60008083356001602003843603038112611817576118166117eb565b5b80840192508235915067ffffffffffffffff821115611839576118386117f0565b5b602083019250600182023603831315611855576118546117f5565b5b509250929050565b600061186882610e0e565b915061187383610e0e565b925082820390508181111561188b5761188a61148d565b5b92915050565b82818337600083830152505050565b60006118ac83856112c7565b93506118b9838584611891565b6118c283611129565b840190509392505050565b60006040820190506118e26000830186610e71565b81810360208301526118f58184866118a0565b9050949350505050565b6000602082019050818103600083015261191a8184866118a0565b90509392505050565b7f506f6c6c20697320636c6f736564000000000000000000000000000000000000600082015250565b6000611959600e836112c7565b915061196482611923565b602082019050919050565b600060208201905081810360008301526119888161194c565b9050919050565b7f416c726561647920766f74656400000000000000000000000000000000000000600082015250565b60006119c5600d836112c7565b91506119d08261198f565b602082019050919050565b600060208201905081810360008301526119f4816119b8565b9050919050565b7f496e76616c6964206f7074696f6e000000000000000000000000000000000000600082015250565b6000611a31600e836112c7565b9150611a3c826119fb565b602082019050919050565b60006020820190508181036000830152611a6081611a24565b9050919050565b6000611a7282610e0e565b9150611a7d83610e0e565b9250828201905080821115611a9557611a9461148d565b5b92915050565b7f4f776e61626c653a206e6577206f776e657220697320746865207a65726f206160008201527f6464726573730000000000000000000000000000000000000000000000000000602082015250565b6000611af76026836112c7565b9150611b0282611a9b565b604082019050919050565b60006020820190508181036000830152611b2681611aea565b9050919050565b7f4f776e61626c653a2063616c6c6572206973206e6f7420746865206f776e6572600082015250565b6000611b636020836112c7565b9150611b6e82611b2d565b602082019050919050565b60006020820190508181036000830152611b9281611b56565b9050919050565b7f5265656e7472616e637947756172643a207265656e7472616e742063616c6c00600082015250565b6000611bcf601f836112c7565b9150611bda82611b99565b602082019050919050565b60006020820190508181036000830152611bfe81611bc2565b905091905056fea26469706673582212206bf5dce9d461299c5e61bd43464629c33a0a19b2ce61cb2a2e5193af19a4430a64736f6c63430008130033","opcodes":"PUSH1 0x80 PUSH1 0x40 MSTORE CALLVALUE DUP1 ISZERO PUSH2 0x10 JUMPI PUSH1 0x0 DUP1 REVERT JUMPDEST POP PUSH2 0x2D PUSH2 0x22 PUSH2 0x39 PUSH1 0x20 SHL PUSH1 0x20 SHR JUMP JUMPDEST PUSH2 0x41 PUSH1 0x20 SHL PUSH1 0x20 SHR JUMP JUMPDEST PUSH1 0x1 DUP1 DUP2 SWAP1 SSTORE POP PUSH2 0x105 JUMP JUMPDEST PUSH1 0x0 CALLER SWAP1 POP SWAP1 JUMP JUMPDEST PUSH1 0x0 DUP1 PUSH1 0x0 SWAP1 SLOAD SWAP1 PUSH2 0x100 EXP SWAP1 DIV PUSH20 0xFFFFFFFFFFFFFFFFFFFFFFFFFFFFFFFFFFFFFFFF AND SWAP1 POP DUP2 PUSH1 0x0 DUP1 PUSH2 0x100 EXP DUP2 SLOAD DUP2 PUSH20 0xFFFFFFFFFFFFFFFFFFFFFFFFFFFFFFFFFFFFFFFF MUL NOT AND SWAP1 DUP4 PUSH20 0xFFFFFFFFFFFFFFFFFFFFFFFFFFFFFFFFFFFFFFFF AND MUL OR SWAP1 SSTORE POP DUP2 PUSH20 0xFFFFFFFFFFFFFFFFFFFFFFFFFFFFFFFFFFFFFFFF AND DUP2 PUSH20 0xFFFFFFFFFFFFFFFFFFFFFFFFFFFFFFFFFFFFFFFF AND PUSH32 0x8BE0079C531659141344CD1FD0A4F28419497F9722A3DAAFE3B4186F6B6457E0 PUSH1 0x40 MLOAD PUSH1 0x40 MLOAD DUP1 SWAP2 SUB SWAP1 LOG3 POP POP JUMP JUMPDEST PUSH2 0x1C3B DUP1 PUSH2 0x114 PUSH1 0x0 CODECOPY PUSH1 0x0 RETURN INVALID PUSH1 0x80 PUSH1 0x40 MSTORE CALLVALUE DUP1 ISZERO PUSH2 0x10 JUMPI PUSH1 0x0 DUP1 REVERT JUMPDEST POP PUSH1 0x4 CALLDATASIZE LT PUSH2 0xA9 JUMPI PUSH1 0x0 CALLDATALOAD PUSH1 0xE0 SHR DUP1 PUSH4 0x8DA5CB5B GT PUSH2 0x71 JUMPI DUP1 PUSH4 0x8DA5CB5B EQ PUSH2 0x178 JUMPI DUP1 PUSH4 0x91F36633 EQ PUSH2 0x196 JUMPI DUP1 PUSH4 0x9534E637 EQ PUSH2 0x1C6 JUMPI DUP1 PUSH4 0xAC2F0074 EQ PUSH2 0x1E2 JUMPI DUP1 PUSH4 0xB384ABEF EQ PUSH2 0x214 JUMPI DUP1 PUSH4 0xF2FDE38B EQ PUSH2 0x230 JUMPI PUSH2 0xA9 JUMP JUMPDEST DUP1 PUSH4 0x2CE35E11 EQ PUSH2 0xAE JUMPI DUP1 PUSH4 0x6CE0A9E0 EQ PUSH2 0xDE JUMPI DUP1 PUSH4 0x715018A6 EQ PUSH2 0x10E JUMPI DUP1 PUSH4 0x7E3D71C3 EQ PUSH2 0x118 JUMPI DUP1 PUSH4 0x8915B3FB EQ PUSH2 0x148 JUMPI JUMPDEST PUSH1 0x0 DUP1 REVERT JUMPDEST PUSH2 0xC8 PUSH1 0x4 DUP1 CALLDATASIZE SUB DUP2 ADD SWAP1 PUSH2 0xC3 SWAP2 SWAP1 PUSH2 0xE44 JUMP JUMPDEST PUSH2 0x24C JUMP JUMPDEST PUSH1 0x40 MLOAD PUSH2 0xD5 SWAP2 SWAP1 PUSH2 0xE80 JUMP JUMPDEST PUSH1 0x40 MLOAD DUP1 SWAP2 SUB SWAP1 RETURN JUMPDEST PUSH2 0xF8 PUSH1 0x4 DUP1 CALLDATASIZE SUB DUP2 ADD SWAP1 PUSH2 0xF3 SWAP2 SWAP1 PUSH2 0xE44 JUMP JUMPDEST PUSH2 0x2C2 JUMP JUMPDEST PUSH1 0x40 MLOAD PUSH2 0x105 SWAP2 SWAP1 PUSH2 0xF59 JUMP JUMPDEST PUSH1 0x40 MLOAD DUP1 SWAP2 SUB SWAP1 RETURN JUMPDEST PUSH2 0x116 PUSH2 0x3EA JUMP JUMPDEST STOP JUMPDEST PUSH2 0x132 PUSH1 0x4 DUP1 CALLDATASIZE SUB DUP2 ADD SWAP1 PUSH2 0x12D SWAP2 SWAP1 PUSH2 0x1036 JUMP JUMPDEST PUSH2 0x3FE JUMP JUMPDEST PUSH1 0x40 MLOAD PUSH2 0x13F SWAP2 SWAP1 PUSH2 0xE80 JUMP JUMPDEST PUSH1 0x40 MLOAD DUP1 SWAP2 SUB SWAP1 RETURN JUMPDEST PUSH2 0x162 PUSH1 0x4 DUP1 CALLDATASIZE SUB DUP2 ADD SWAP1 PUSH2 0x15D SWAP2 SWAP1 PUSH2 0xE44 JUMP JUMPDEST PUSH2 0x5BA JUMP JUMPDEST PUSH1 0x40 MLOAD PUSH2 0x16F SWAP2 SWAP1 PUSH2 0x1209 JUMP JUMPDEST PUSH1 0x40 MLOAD DUP1 SWAP2 SUB SWAP1 RETURN JUMPDEST PUSH2 0x180 PUSH2 0x6FF JUMP JUMPDEST PUSH1 0x40 MLOAD PUSH2 0x18D SWAP2 SWAP1 PUSH2 0x126C JUMP JUMPDEST PUSH1 0x40 MLOAD DUP1 SWAP2 SUB SWAP1 RETURN JUMPDEST PUSH2 0x1B0 PUSH1 0x4 DUP1 CALLDATASIZE SUB DUP2 ADD SWAP1 PUSH2 0x1AB SWAP2 SWAP1 PUSH2 0x1287 JUMP JUMPDEST PUSH2 0x728 JUMP JUMPDEST PUSH1 0x40 MLOAD PUSH2 0x1BD SWAP2 SWAP1 PUSH2 0xE80 JUMP JUMPDEST PUSH1 0x40 MLOAD DUP1 SWAP2 SUB SWAP1 RETURN JUMPDEST PUSH2 0x1E0 PUSH1 0x4 DUP1 CALLDATASIZE SUB DUP2 ADD SWAP1 PUSH2 0x1DB SWAP2 SWAP1 PUSH2 0xE44 JUMP JUMPDEST PUSH2 0x7B0 JUMP JUMPDEST STOP JUMPDEST PUSH2 0x1FC PUSH1 0x4 DUP1 CALLDATASIZE SUB DUP2 ADD SWAP1 PUSH2 0x1F7 SWAP2 SWAP1 PUSH2 0xE44 JUMP JUMPDEST PUSH2 0x873 JUMP JUMPDEST PUSH1 0x40 MLOAD PUSH2 0x20B SWAP4 SWAP3 SWAP2 SWAP1 PUSH2 0x132C JUMP JUMPDEST PUSH1 0x40 MLOAD DUP1 SWAP2 SUB SWAP1 RETURN JUMPDEST PUSH2 0x22E PUSH1 0x4 DUP1 CALLDATASIZE SUB DUP2 ADD SWAP1 PUSH2 0x229 SWAP2 SWAP1 PUSH2 0x1287 JUMP JUMPDEST PUSH2 0x942 JUMP JUMPDEST STOP JUMPDEST PUSH2 0x24A PUSH1 0x4 DUP1 CALLDATASIZE SUB DUP2 ADD SWAP1 PUSH2 0x245 SWAP2 SWAP1 PUSH2 0x1396 JUMP JUMPDEST PUSH2 0xBDF JUMP JUMPDEST STOP JUMPDEST PUSH1 0x0 PUSH1 0x2 DUP1 SLOAD SWAP1 POP DUP3 LT PUSH2 0x295 JUMPI PUSH1 0x40 MLOAD PUSH32 0x8C379A000000000000000000000000000000000000000000000000000000000 DUP2 MSTORE PUSH1 0x4 ADD PUSH2 0x28C SWAP1 PUSH2 0x140F JUMP JUMPDEST PUSH1 0x40 MLOAD DUP1 SWAP2 SUB SWAP1 REVERT JUMPDEST PUSH1 0x2 DUP3 DUP2 SLOAD DUP2 LT PUSH2 0x2A9 JUMPI PUSH2 0x2A8 PUSH2 0x142F JUMP JUMPDEST JUMPDEST SWAP1 PUSH1 0x0 MSTORE PUSH1 0x20 PUSH1 0x0 KECCAK256 SWAP1 PUSH1 0x6 MUL ADD PUSH1 0x2 ADD SLOAD SWAP1 POP SWAP2 SWAP1 POP JUMP JUMPDEST PUSH1 0x60 PUSH1 0x2 DUP1 SLOAD SWAP1 POP DUP3 LT PUSH2 0x30B JUMPI PUSH1 0x40 MLOAD PUSH32 0x8C379A000000000000000000000000000000000000000000000000000000000 DUP2 MSTORE PUSH1 0x4 ADD PUSH2 0x302 SWAP1 PUSH2 0x140F JUMP JUMPDEST PUSH1 0x40 MLOAD DUP1 SWAP2 SUB SWAP1 REVERT JUMPDEST PUSH1 0x0 PUSH1 0x2 DUP4 DUP2 SLOAD DUP2 LT PUSH2 0x321 JUMPI PUSH2 0x320 PUSH2 0x142F JUMP JUMPDEST JUMPDEST SWAP1 PUSH1 0x0 MSTORE PUSH1 0x20 PUSH1 0x0 KECCAK256 SWAP1 PUSH1 0x6 MUL ADD SWAP1 POP PUSH1 0x0 DUP2 PUSH1 0x5 ADD DUP1 SLOAD SWAP1 POP PUSH8 0xFFFFFFFFFFFFFFFF DUP2 GT ISZERO PUSH2 0x354 JUMPI PUSH2 0x353 PUSH2 0x145E JUMP JUMPDEST JUMPDEST PUSH1 0x40 MLOAD SWAP1 DUP1 DUP3 MSTORE DUP1 PUSH1 0x20 MUL PUSH1 0x20 ADD DUP3 ADD PUSH1 0x40 MSTORE DUP1 ISZERO PUSH2 0x382 JUMPI DUP2 PUSH1 0x20 ADD PUSH1 0x20 DUP3 MUL DUP1 CALLDATASIZE DUP4 CALLDATACOPY DUP1 DUP3 ADD SWAP2 POP POP SWAP1 POP JUMPDEST POP SWAP1 POP PUSH1 0x0 JUMPDEST DUP3 PUSH1 0x5 ADD DUP1 SLOAD SWAP1 POP DUP2 LT ISZERO PUSH2 0x3DF JUMPI DUP3 PUSH1 0x3 ADD PUSH1 0x0 DUP3 DUP2 MSTORE PUSH1 0x20 ADD SWAP1 DUP2 MSTORE PUSH1 0x20 ADD PUSH1 0x0 KECCAK256 SLOAD DUP3 DUP3 DUP2 MLOAD DUP2 LT PUSH2 0x3C0 JUMPI PUSH2 0x3BF PUSH2 0x142F JUMP JUMPDEST JUMPDEST PUSH1 0x20 MUL PUSH1 0x20 ADD ADD DUP2 DUP2 MSTORE POP POP DUP1 DUP1 PUSH2 0x3D7 SWAP1 PUSH2 0x14BC JUMP JUMPDEST SWAP2 POP POP PUSH2 0x388 JUMP JUMPDEST POP DUP1 SWAP3 POP POP POP SWAP2 SWAP1 POP JUMP JUMPDEST PUSH2 0x3F2 PUSH2 0xC62 JUMP JUMPDEST PUSH2 0x3FC PUSH1 0x0 PUSH2 0xCE0 JUMP JUMPDEST JUMP JUMPDEST PUSH1 0x0 PUSH2 0x408 PUSH2 0xC62 JUMP JUMPDEST PUSH1 0x0 PUSH1 0x2 PUSH1 0x1 DUP2 PUSH1 0x1 DUP2 SLOAD ADD DUP1 DUP3 SSTORE DUP1 SWAP2 POP POP SUB SWAP1 PUSH1 0x0 MSTORE PUSH1 0x20 PUSH1 0x0 KECCAK256 SWAP1 PUSH1 0x6 MUL ADD SWAP1 POP DUP6 DUP6 DUP3 PUSH1 0x0 ADD SWAP2 DUP3 PUSH2 0x43F SWAP3 SWAP2 SWAP1 PUSH2 0x171B JUMP JUMPDEST POP PUSH1 0x1 DUP2 PUSH1 0x1 ADD PUSH1 0x0 PUSH2 0x100 EXP DUP2 SLOAD DUP2 PUSH1 0xFF MUL NOT AND SWAP1 DUP4 ISZERO ISZERO MUL OR SWAP1 SSTORE POP PUSH1 0x0 JUMPDEST DUP5 DUP5 SWAP1 POP DUP2 LT ISZERO PUSH2 0x551 JUMPI DUP2 PUSH1 0x5 ADD DUP6 DUP6 DUP4 DUP2 DUP2 LT PUSH2 0x482 JUMPI PUSH2 0x481 PUSH2 0x142F JUMP JUMPDEST JUMPDEST SWAP1 POP PUSH1 0x20 MUL DUP2 ADD SWAP1 PUSH2 0x494 SWAP2 SWAP1 PUSH2 0x17FA JUMP JUMPDEST SWAP1 SWAP2 DUP1 PUSH1 0x1 DUP2 SLOAD ADD DUP1 DUP3 SSTORE DUP1 SWAP2 POP POP PUSH1 0x1 SWAP1 SUB SWAP1 PUSH1 0x0 MSTORE PUSH1 0x20 PUSH1 0x0 KECCAK256 ADD PUSH1 0x0 SWAP1 SWAP2 SWAP3 SWAP1 SWAP2 SWAP3 SWAP1 SWAP2 SWAP3 SWAP1 SWAP2 SWAP3 POP SWAP2 DUP3 PUSH2 0x4CD SWAP3 SWAP2 SWAP1 PUSH2 0x171B JUMP JUMPDEST POP PUSH1 0x1 PUSH1 0x2 DUP1 SLOAD SWAP1 POP PUSH2 0x4E0 SWAP2 SWAP1 PUSH2 0x185D JUMP JUMPDEST PUSH32 0x946129913E1D347E0148279910CACB866DA59759E7914832EE7E7B69AC15001 DUP3 DUP8 DUP8 DUP6 DUP2 DUP2 LT PUSH2 0x515 JUMPI PUSH2 0x514 PUSH2 0x142F JUMP JUMPDEST JUMPDEST SWAP1 POP PUSH1 0x20 MUL DUP2 ADD SWAP1 PUSH2 0x527 SWAP2 SWAP1 PUSH2 0x17FA JUMP JUMPDEST PUSH1 0x40 MLOAD PUSH2 0x536 SWAP4 SWAP3 SWAP2 SWAP1 PUSH2 0x18CD JUMP JUMPDEST PUSH1 0x40 MLOAD DUP1 SWAP2 SUB SWAP1 LOG2 DUP1 DUP1 PUSH2 0x549 SWAP1 PUSH2 0x14BC JUMP JUMPDEST SWAP2 POP POP PUSH2 0x460 JUMP JUMPDEST POP PUSH1 0x1 PUSH1 0x2 DUP1 SLOAD SWAP1 POP PUSH2 0x564 SWAP2 SWAP1 PUSH2 0x185D JUMP JUMPDEST PUSH32 0x65D5AC2BF1BCA69566BEF1AFFDFCA5BB37B9577FC0B3AF4C7C4638225E67B39C DUP8 DUP8 PUSH1 0x40 MLOAD PUSH2 0x595 SWAP3 SWAP2 SWAP1 PUSH2 0x18FF JUMP JUMPDEST PUSH1 0x40 MLOAD DUP1 SWAP2 SUB SWAP1 LOG2 PUSH1 0x1 PUSH1 0x2 DUP1 SLOAD SWAP1 POP PUSH2 0x5AF SWAP2 SWAP1 PUSH2 0x185D JUMP JUMPDEST SWAP2 POP POP SWAP5 SWAP4 POP POP POP POP JUMP JUMPDEST PUSH1 0x60 PUSH1 0x2 DUP1 SLOAD SWAP1 POP DUP3 LT PUSH2 0x603 JUMPI PUSH1 0x40 MLOAD PUSH32 0x8C379A000000000000000000000000000000000000000000000000000000000 DUP2 MSTORE PUSH1 0x4 ADD PUSH2 0x5FA SWAP1 PUSH2 0x140F JUMP JUMPDEST PUSH1 0x40 MLOAD DUP1 SWAP2 SUB SWAP1 REVERT JUMPDEST PUSH1 0x2 DUP3 DUP2 SLOAD DUP2 LT PUSH2 0x617 JUMPI PUSH2 0x616 PUSH2 0x142F JUMP JUMPDEST JUMPDEST SWAP1 PUSH1 0x0 MSTORE PUSH1 0x20 PUSH1 0x0 KECCAK256 SWAP1 PUSH1 0x6 MUL ADD PUSH1 0x5 ADD DUP1 SLOAD DUP1 PUSH1 0x20 MUL PUSH1 0x20 ADD PUSH1 0x40 MLOAD SWAP1 DUP2 ADD PUSH1 0x40 MSTORE DUP1 SWAP3 SWAP2 SWAP1 DUP2 DUP2 MSTORE PUSH1 0x20 ADD PUSH1 0x0 SWAP1 JUMPDEST DUP3 DUP3 LT ISZERO PUSH2 0x6F4 JUMPI DUP4 DUP3 SWAP1 PUSH1 0x0 MSTORE PUSH1 0x20 PUSH1 0x0 KECCAK256 ADD DUP1 SLOAD PUSH2 0x667 SWAP1 PUSH2 0x153E JUMP JUMPDEST DUP1 PUSH1 0x1F ADD PUSH1 0x20 DUP1 SWAP2 DIV MUL PUSH1 0x20 ADD PUSH1 0x40 MLOAD SWAP1 DUP2 ADD PUSH1 0x40 MSTORE DUP1 SWAP3 SWAP2 SWAP1 DUP2 DUP2 MSTORE PUSH1 0x20 ADD DUP3 DUP1 SLOAD PUSH2 0x693 SWAP1 PUSH2 0x153E JUMP JUMPDEST DUP1 ISZERO PUSH2 0x6E0 JUMPI DUP1 PUSH1 0x1F LT PUSH2 0x6B5 JUMPI PUSH2 0x100 DUP1 DUP4 SLOAD DIV MUL DUP4 MSTORE SWAP2 PUSH1 0x20 ADD SWAP2 PUSH2 0x6E0 JUMP JUMPDEST DUP3 ADD SWAP2 SWAP1 PUSH1 0x0 MSTORE PUSH1 0x20 PUSH1 0x0 KECCAK256 SWAP1 JUMPDEST DUP2 SLOAD DUP2 MSTORE SWAP1 PUSH1 0x1 ADD SWAP1 PUSH1 0x20 ADD DUP1 DUP4 GT PUSH2 0x6C3 JUMPI DUP3 SWAP1 SUB PUSH1 0x1F AND DUP3 ADD SWAP2 JUMPDEST POP POP POP POP POP DUP2 MSTORE PUSH1 0x20 ADD SWAP1 PUSH1 0x1 ADD SWAP1 PUSH2 0x648 JUMP JUMPDEST POP POP POP POP SWAP1 POP SWAP2 SWAP1 POP JUMP JUMPDEST PUSH1 0x0 DUP1 PUSH1 0x0 SWAP1 SLOAD SWAP1 PUSH2 0x100 EXP SWAP1 DIV PUSH20 0xFFFFFFFFFFFFFFFFFFFFFFFFFFFFFFFFFFFFFFFF AND SWAP1 POP SWAP1 JUMP JUMPDEST PUSH1 0x0 PUSH1 0x2 DUP1 SLOAD SWAP1 POP DUP4 LT PUSH2 0x771 JUMPI PUSH1 0x40 MLOAD PUSH32 0x8C379A000000000000000000000000000000000000000000000000000000000 DUP2 MSTORE PUSH1 0x4 ADD PUSH2 0x768 SWAP1 PUSH2 0x140F JUMP JUMPDEST PUSH1 0x40 MLOAD DUP1 SWAP2 SUB SWAP1 REVERT JUMPDEST PUSH1 0x2 DUP4 DUP2 SLOAD DUP2 LT PUSH2 0x785 JUMPI PUSH2 0x784 PUSH2 0x142F JUMP JUMPDEST JUMPDEST SWAP1 PUSH1 0x0 MSTORE PUSH1 0x20 PUSH1 0x0 KECCAK256 SWAP1 PUSH1 0x6 MUL ADD PUSH1 0x3 ADD PUSH1 0x0 DUP4 DUP2 MSTORE PUSH1 0x20 ADD SWAP1 DUP2 MSTORE PUSH1 0x20 ADD PUSH1 0x0 KECCAK256 SLOAD SWAP1 POP SWAP3 SWAP2 POP POP JUMP JUMPDEST PUSH2 0x7B8 PUSH2 0xC62 JUMP JUMPDEST PUSH1 0x2 DUP1 SLOAD SWAP1 POP DUP2 LT PUSH2 0x7FF JUMPI PUSH1 0x40 MLOAD PUSH32 0x8C379A000000000000000000000000000000000000000000000000000000000 DUP2 MSTORE PUSH1 0x4 ADD PUSH2 0x7F6 SWAP1 PUSH2 0x140F JUMP JUMPDEST PUSH1 0x40 MLOAD DUP1 SWAP2 SUB SWAP1 REVERT JUMPDEST PUSH1 0x0 PUSH1 0x2 DUP3 DUP2 SLOAD DUP2 LT PUSH2 0x815 JUMPI PUSH2 0x814 PUSH2 0x142F JUMP JUMPDEST JUMPDEST SWAP1 PUSH1 0x0 MSTORE PUSH1 0x20 PUSH1 0x0 KECCAK256 SWAP1 PUSH1 0x6 MUL ADD SWAP1 POP PUSH1 0x0 DUP2 PUSH1 0x1 ADD PUSH1 0x0 PUSH2 0x100 EXP DUP2 SLOAD DUP2 PUSH1 0xFF MUL NOT AND SWAP1 DUP4 ISZERO ISZERO MUL OR SWAP1 SSTORE POP DUP2 PUSH32 0x703C67C157A1AFB7D386CE5212EE88BF0A690BCA998060E9595EBDFD747100CE PUSH1 0x40 MLOAD PUSH1 0x40 MLOAD DUP1 SWAP2 SUB SWAP1 LOG2 POP POP JUMP JUMPDEST PUSH1 0x2 DUP2 DUP2 SLOAD DUP2 LT PUSH2 0x883 JUMPI PUSH1 0x0 DUP1 REVERT JUMPDEST SWAP1 PUSH1 0x0 MSTORE PUSH1 0x20 PUSH1 0x0 KECCAK256 SWAP1 PUSH1 0x6 MUL ADD PUSH1 0x0 SWAP2 POP SWAP1 POP DUP1 PUSH1 0x0 ADD DUP1 SLOAD PUSH2 0x8A6 SWAP1 PUSH2 0x153E JUMP JUMPDEST DUP1 PUSH1 0x1F ADD PUSH1 0x20 DUP1 SWAP2 DIV MUL PUSH1 0x20 ADD PUSH1 0x40 MLOAD SWAP1 DUP2 ADD PUSH1 0x40 MSTORE DUP1 SWAP3 SWAP2 SWAP1 DUP2 DUP2 MSTORE PUSH1 0x20 ADD DUP3 DUP1 SLOAD PUSH2 0x8D2 SWAP1 PUSH2 0x153E JUMP JUMPDEST DUP1 ISZERO PUSH2 0x91F JUMPI DUP1 PUSH1 0x1F LT PUSH2 0x8F4 JUMPI PUSH2 0x100 DUP1 DUP4 SLOAD DIV MUL DUP4 MSTORE SWAP2 PUSH1 0x20 ADD SWAP2 PUSH2 0x91F JUMP JUMPDEST DUP3 ADD SWAP2 SWAP1 PUSH1 0x0 MSTORE PUSH1 0x20 PUSH1 0x0 KECCAK256 SWAP1 JUMPDEST DUP2 SLOAD DUP2 MSTORE SWAP1 PUSH1 0x1 ADD SWAP1 PUSH1 0x20 ADD DUP1 DUP4 GT PUSH2 0x902 JUMPI DUP3 SWAP1 SUB PUSH1 0x1F AND DUP3 ADD SWAP2 JUMPDEST POP POP POP POP POP SWAP1 DUP1 PUSH1 0x1 ADD PUSH1 0x0 SWAP1 SLOAD SWAP1 PUSH2 0x100 EXP SWAP1 DIV PUSH1 0xFF AND SWAP1 DUP1 PUSH1 0x2 ADD SLOAD SWAP1 POP DUP4 JUMP JUMPDEST PUSH2 0x94A PUSH2 0xDA4 JUMP JUMPDEST PUSH1 0x2 DUP1 SLOAD SWAP1 POP DUP3 LT PUSH2 0x991 JUMPI PUSH1 0x40 MLOAD PUSH32 0x8C379A000000000000000000000000000000000000000000000000000000000 DUP2 MSTORE PUSH1 0x4 ADD PUSH2 0x988 SWAP1 PUSH2 0x140F JUMP JUMPDEST PUSH1 0x40 MLOAD DUP1 SWAP2 SUB SWAP1 REVERT JUMPDEST PUSH1 0x0 PUSH1 0x2 DUP4 DUP2 SLOAD DUP2 LT PUSH2 0x9A7 JUMPI PUSH2 0x9A6 PUSH2 0x142F JUMP JUMPDEST JUMPDEST SWAP1 PUSH1 0x0 MSTORE PUSH1 0x20 PUSH1 0x0 KECCAK256 SWAP1 PUSH1 0x6 MUL ADD SWAP1 POP DUP1 PUSH1 0x1 ADD PUSH1 0x0 SWAP1 SLOAD SWAP1 PUSH2 0x100 EXP SWAP1 DIV PUSH1 0xFF AND PUSH2 0xA08 JUMPI PUSH1 0x40 MLOAD PUSH32 0x8C379A000000000000000000000000000000000000000000000000000000000 DUP2 MSTORE PUSH1 0x4 ADD PUSH2 0x9FF SWAP1 PUSH2 0x196F JUMP JUMPDEST PUSH1 0x40 MLOAD DUP1 SWAP2 SUB SWAP1 REVERT JUMPDEST DUP1 PUSH1 0x4 ADD PUSH1 0x0 CALLER PUSH20 0xFFFFFFFFFFFFFFFFFFFFFFFFFFFFFFFFFFFFFFFF AND PUSH20 0xFFFFFFFFFFFFFFFFFFFFFFFFFFFFFFFFFFFFFFFF AND DUP2 MSTORE PUSH1 0x20 ADD SWAP1 DUP2 MSTORE PUSH1 0x20 ADD PUSH1 0x0 KECCAK256 PUSH1 0x0 SWAP1 SLOAD SWAP1 PUSH2 0x100 EXP SWAP1 DIV PUSH1 0xFF AND ISZERO PUSH2 0xA97 JUMPI PUSH1 0x40 MLOAD PUSH32 0x8C379A000000000000000000000000000000000000000000000000000000000 DUP2 MSTORE PUSH1 0x4 ADD PUSH2 0xA8E SWAP1 PUSH2 0x19DB JUMP JUMPDEST PUSH1 0x40 MLOAD DUP1 SWAP2 SUB SWAP1 REVERT JUMPDEST DUP1 PUSH1 0x5 ADD DUP1 SLOAD SWAP1 POP DUP3 LT PUSH2 0xAE0 JUMPI PUSH1 0x40 MLOAD PUSH32 0x8C379A000000000000000000000000000000000000000000000000000000000 DUP2 MSTORE PUSH1 0x4 ADD PUSH2 0xAD7 SWAP1 PUSH2 0x1A47 JUMP JUMPDEST PUSH1 0x40 MLOAD DUP1 SWAP2 SUB SWAP1 REVERT JUMPDEST PUSH1 0x1 DUP2 PUSH1 0x3 ADD PUSH1 0x0 DUP5 DUP2 MSTORE PUSH1 0x20 ADD SWAP1 DUP2 MSTORE PUSH1 0x20 ADD PUSH1 0x0 KECCAK256 PUSH1 0x0 DUP3 DUP3 SLOAD PUSH2 0xB06 SWAP2 SWAP1 PUSH2 0x1A67 JUMP JUMPDEST SWAP3 POP POP DUP2 SWAP1 SSTORE POP PUSH1 0x1 DUP2 PUSH1 0x2 ADD PUSH1 0x0 DUP3 DUP3 SLOAD PUSH2 0xB22 SWAP2 SWAP1 PUSH2 0x1A67 JUMP JUMPDEST SWAP3 POP POP DUP2 SWAP1 SSTORE POP PUSH1 0x1 DUP2 PUSH1 0x4 ADD PUSH1 0x0 CALLER PUSH20 0xFFFFFFFFFFFFFFFFFFFFFFFFFFFFFFFFFFFFFFFF AND PUSH20 0xFFFFFFFFFFFFFFFFFFFFFFFFFFFFFFFFFFFFFFFF AND DUP2 MSTORE PUSH1 0x20 ADD SWAP1 DUP2 MSTORE PUSH1 0x20 ADD PUSH1 0x0 KECCAK256 PUSH1 0x0 PUSH2 0x100 EXP DUP2 SLOAD DUP2 PUSH1 0xFF MUL NOT AND SWAP1 DUP4 ISZERO ISZERO MUL OR SWAP1 SSTORE POP CALLER PUSH20 0xFFFFFFFFFFFFFFFFFFFFFFFFFFFFFFFFFFFFFFFF AND DUP4 PUSH32 0x7FE1D4E6B34E228B5DC059FCDC037C71B216FB2417F47C171E505144A5E4F5FC DUP5 PUSH1 0x40 MLOAD PUSH2 0xBCA SWAP2 SWAP1 PUSH2 0xE80 JUMP JUMPDEST PUSH1 0x40 MLOAD DUP1 SWAP2 SUB SWAP1 LOG3 POP PUSH2 0xBDB PUSH2 0xDF3 JUMP JUMPDEST POP POP JUMP JUMPDEST PUSH2 0xBE7 PUSH2 0xC62 JUMP JUMPDEST PUSH1 0x0 PUSH20 0xFFFFFFFFFFFFFFFFFFFFFFFFFFFFFFFFFFFFFFFF AND DUP2 PUSH20 0xFFFFFFFFFFFFFFFFFFFFFFFFFFFFFFFFFFFFFFFF AND SUB PUSH2 0xC56 JUMPI PUSH1 0x40 MLOAD PUSH32 0x8C379A000000000000000000000000000000000000000000000000000000000 DUP2 MSTORE PUSH1 0x4 ADD PUSH2 0xC4D SWAP1 PUSH2 0x1B0D JUMP JUMPDEST PUSH1 0x40 MLOAD DUP1 SWAP2 SUB SWAP1 REVERT JUMPDEST PUSH2 0xC5F DUP2 PUSH2 0xCE0 JUMP JUMPDEST POP JUMP JUMPDEST PUSH2 0xC6A PUSH2 0xDFC JUMP JUMPDEST PUSH20 0xFFFFFFFFFFFFFFFFFFFFFFFFFFFFFFFFFFFFFFFF AND PUSH2 0xC88 PUSH2 0x6FF JUMP JUMPDEST PUSH20 0xFFFFFFFFFFFFFFFFFFFFFFFFFFFFFFFFFFFFFFFF AND EQ PUSH2 0xCDE JUMPI PUSH1 0x40 MLOAD PUSH32 0x8C379A000000000000000000000000000000000000000000000000000000000 DUP2 MSTORE PUSH1 0x4 ADD PUSH2 0xCD5 SWAP1 PUSH2 0x1B79 JUMP JUMPDEST PUSH1 0x40 MLOAD DUP1 SWAP2 SUB SWAP1 REVERT JUMPDEST JUMP JUMPDEST PUSH1 0x0 DUP1 PUSH1 0x0 SWAP1 SLOAD SWAP1 PUSH2 0x100 EXP SWAP1 DIV PUSH20 0xFFFFFFFFFFFFFFFFFFFFFFFFFFFFFFFFFFFFFFFF AND SWAP1 POP DUP2 PUSH1 0x0 DUP1 PUSH2 0x100 EXP DUP2 SLOAD DUP2 PUSH20 0xFFFFFFFFFFFFFFFFFFFFFFFFFFFFFFFFFFFFFFFF MUL NOT AND SWAP1 DUP4 PUSH20 0xFFFFFFFFFFFFFFFFFFFFFFFFFFFFFFFFFFFFFFFF AND MUL OR SWAP1 SSTORE POP DUP2 PUSH20 0xFFFFFFFFFFFFFFFFFFFFFFFFFFFFFFFFFFFFFFFF AND DUP2 PUSH20 0xFFFFFFFFFFFFFFFFFFFFFFFFFFFFFFFFFFFFFFFF AND PUSH32 0x8BE0079C531659141344CD1FD0A4F28419497F9722A3DAAFE3B4186F6B6457E0 PUSH1 0x40 MLOAD PUSH1 0x40 MLOAD DUP1 SWAP2 SUB SWAP1 LOG3 POP POP JUMP JUMPDEST PUSH1 0x2 PUSH1 0x1 SLOAD SUB PUSH2 0xDE9 JUMPI PUSH1 0x40 MLOAD PUSH32 0x8C379A000000000000000000000000000000000000000000000000000000000 DUP2 MSTORE PUSH1 0x4 ADD PUSH2 0xDE0 SWAP1 PUSH2 0x1BE5 JUMP JUMPDEST PUSH1 0x40 MLOAD DUP1 SWAP2 SUB SWAP1 REVERT JUMPDEST PUSH1 0x2 PUSH1 0x1 DUP2 SWAP1 SSTORE POP JUMP JUMPDEST PUSH1 0x1 DUP1 DUP2 SWAP1 SSTORE POP JUMP JUMPDEST PUSH1 0x0 CALLER SWAP1 POP SWAP1 JUMP JUMPDEST PUSH1 0x0 DUP1 REVERT JUMPDEST PUSH1 0x0 DUP1 REVERT JUMPDEST PUSH1 0x0 DUP2 SWAP1 POP SWAP2 SWAP1 POP JUMP JUMPDEST PUSH2 0xE21 DUP2 PUSH2 0xE0E JUMP JUMPDEST DUP2 EQ PUSH2 0xE2C JUMPI PUSH1 0x0 DUP1 REVERT JUMPDEST POP JUMP JUMPDEST PUSH1 0x0 DUP2 CALLDATALOAD SWAP1 POP PUSH2 0xE3E DUP2 PUSH2 0xE18 JUMP JUMPDEST SWAP3 SWAP2 POP POP JUMP JUMPDEST PUSH1 0x0 PUSH1 0x20 DUP3 DUP5 SUB SLT ISZERO PUSH2 0xE5A JUMPI PUSH2 0xE59 PUSH2 0xE04 JUMP JUMPDEST JUMPDEST PUSH1 0x0 PUSH2 0xE68 DUP5 DUP3 DUP6 ADD PUSH2 0xE2F JUMP JUMPDEST SWAP2 POP POP SWAP3 SWAP2 POP POP JUMP JUMPDEST PUSH2 0xE7A DUP2 PUSH2 0xE0E JUMP JUMPDEST DUP3 MSTORE POP POP JUMP JUMPDEST PUSH1 0x0 PUSH1 0x20 DUP3 ADD SWAP1 POP PUSH2 0xE95 PUSH1 0x0 DUP4 ADD DUP5 PUSH2 0xE71 JUMP JUMPDEST SWAP3 SWAP2 POP POP JUMP JUMPDEST PUSH1 0x0 DUP2 MLOAD SWAP1 POP SWAP2 SWAP1 POP JUMP JUMPDEST PUSH1 0x0 DUP3 DUP3 MSTORE PUSH1 0x20 DUP3 ADD SWAP1 POP SWAP3 SWAP2 POP POP JUMP JUMPDEST PUSH1 0x0 DUP2 SWAP1 POP PUSH1 0x20 DUP3 ADD SWAP1 POP SWAP2 SWAP1 POP JUMP JUMPDEST PUSH2 0xED0 DUP2 PUSH2 0xE0E JUMP JUMPDEST DUP3 MSTORE POP POP JUMP JUMPDEST PUSH1 0x0 PUSH2 0xEE2 DUP4 DUP4 PUSH2 0xEC7 JUMP JUMPDEST PUSH1 0x20 DUP4 ADD SWAP1 POP SWAP3 SWAP2 POP POP JUMP JUMPDEST PUSH1 0x0 PUSH1 0x20 DUP3 ADD SWAP1 POP SWAP2 SWAP1 POP JUMP JUMPDEST PUSH1 0x0 PUSH2 0xF06 DUP3 PUSH2 0xE9B JUMP JUMPDEST PUSH2 0xF10 DUP2 DUP6 PUSH2 0xEA6 JUMP JUMPDEST SWAP4 POP PUSH2 0xF1B DUP4 PUSH2 0xEB7 JUMP JUMPDEST DUP1 PUSH1 0x0 JUMPDEST DUP4 DUP2 LT ISZERO PUSH2 0xF4C JUMPI DUP2 MLOAD PUSH2 0xF33 DUP9 DUP3 PUSH2 0xED6 JUMP JUMPDEST SWAP8 POP PUSH2 0xF3E DUP4 PUSH2 0xEEE JUMP JUMPDEST SWAP3 POP POP PUSH1 0x1 DUP2 ADD SWAP1 POP PUSH2 0xF1F JUMP JUMPDEST POP DUP6 SWAP4 POP POP POP POP SWAP3 SWAP2 POP POP JUMP JUMPDEST PUSH1 0x0 PUSH1 0x20 DUP3 ADD SWAP1 POP DUP2 DUP2 SUB PUSH1 0x0 DUP4 ADD MSTORE PUSH2 0xF73 DUP2 DUP5 PUSH2 0xEFB JUMP JUMPDEST SWAP1 POP SWAP3 SWAP2 POP POP JUMP JUMPDEST PUSH1 0x0 DUP1 REVERT JUMPDEST PUSH1 0x0 DUP1 REVERT JUMPDEST PUSH1 0x0 DUP1 REVERT JUMPDEST PUSH1 0x0 DUP1 DUP4 PUSH1 0x1F DUP5 ADD SLT PUSH2 0xFA0 JUMPI PUSH2 0xF9F PUSH2 0xF7B JUMP JUMPDEST JUMPDEST DUP3 CALLDATALOAD SWAP1 POP PUSH8 0xFFFFFFFFFFFFFFFF DUP2 GT ISZERO PUSH2 0xFBD JUMPI PUSH2 0xFBC PUSH2 0xF80 JUMP JUMPDEST JUMPDEST PUSH1 0x20 DUP4 ADD SWAP2 POP DUP4 PUSH1 0x1 DUP3 MUL DUP4 ADD GT ISZERO PUSH2 0xFD9 JUMPI PUSH2 0xFD8 PUSH2 0xF85 JUMP JUMPDEST JUMPDEST SWAP3 POP SWAP3 SWAP1 POP JUMP JUMPDEST PUSH1 0x0 DUP1 DUP4 PUSH1 0x1F DUP5 ADD SLT PUSH2 0xFF6 JUMPI PUSH2 0xFF5 PUSH2 0xF7B JUMP JUMPDEST JUMPDEST DUP3 CALLDATALOAD SWAP1 POP PUSH8 0xFFFFFFFFFFFFFFFF DUP2 GT ISZERO PUSH2 0x1013 JUMPI PUSH2 0x1012 PUSH2 0xF80 JUMP JUMPDEST JUMPDEST PUSH1 0x20 DUP4 ADD SWAP2 POP DUP4 PUSH1 0x20 DUP3 MUL DUP4 ADD GT ISZERO PUSH2 0x102F JUMPI PUSH2 0x102E PUSH2 0xF85 JUMP JUMPDEST JUMPDEST SWAP3 POP SWAP3 SWAP1 POP JUMP JUMPDEST PUSH1 0x0 DUP1 PUSH1 0x0 DUP1 PUSH1 0x40 DUP6 DUP8 SUB SLT ISZERO PUSH2 0x1050 JUMPI PUSH2 0x104F PUSH2 0xE04 JUMP JUMPDEST JUMPDEST PUSH1 0x0 DUP6 ADD CALLDATALOAD PUSH8 0xFFFFFFFFFFFFFFFF DUP2 GT ISZERO PUSH2 0x106E JUMPI PUSH2 0x106D PUSH2 0xE09 JUMP JUMPDEST JUMPDEST PUSH2 0x107A DUP8 DUP3 DUP9 ADD PUSH2 0xF8A JUMP JUMPDEST SWAP5 POP SWAP5 POP POP PUSH1 0x20 DUP6 ADD CALLDATALOAD PUSH8 0xFFFFFFFFFFFFFFFF DUP2 GT ISZERO PUSH2 0x109D JUMPI PUSH2 0x109C PUSH2 0xE09 JUMP JUMPDEST JUMPDEST PUSH2 0x10A9 DUP8 DUP3 DUP9 ADD PUSH2 0xFE0 JUMP JUMPDEST SWAP3 POP SWAP3 POP POP SWAP3 SWAP6 SWAP2 SWAP5 POP SWAP3 POP JUMP JUMPDEST PUSH1 0x0 DUP2 MLOAD SWAP1 POP SWAP2 SWAP1 POP JUMP JUMPDEST PUSH1 0x0 DUP3 DUP3 MSTORE PUSH1 0x20 DUP3 ADD SWAP1 POP SWAP3 SWAP2 POP POP JUMP JUMPDEST PUSH1 0x0 DUP2 SWAP1 POP PUSH1 0x20 DUP3 ADD SWAP1 POP SWAP2 SWAP1 POP JUMP JUMPDEST PUSH1 0x0 DUP2 MLOAD SWAP1 POP SWAP2 SWAP1 POP JUMP JUMPDEST PUSH1 0x0 DUP3 DUP3 MSTORE PUSH1 0x20 DUP3 ADD SWAP1 POP SWAP3 SWAP2 POP POP JUMP JUMPDEST PUSH1 0x0 JUMPDEST DUP4 DUP2 LT ISZERO PUSH2 0x111D JUMPI DUP1 DUP3 ADD MLOAD DUP2 DUP5 ADD MSTORE PUSH1 0x20 DUP2 ADD SWAP1 POP PUSH2 0x1102 JUMP JUMPDEST PUSH1 0x0 DUP5 DUP5 ADD MSTORE POP POP POP POP JUMP JUMPDEST PUSH1 0x0 PUSH1 0x1F NOT PUSH1 0x1F DUP4 ADD AND SWAP1 POP SWAP2 SWAP1 POP JUMP JUMPDEST PUSH1 0x0 PUSH2 0x1145 DUP3 PUSH2 0x10E3 JUMP JUMPDEST PUSH2 0x114F DUP2 DUP6 PUSH2 0x10EE JUMP JUMPDEST SWAP4 POP PUSH2 0x115F DUP2 DUP6 PUSH1 0x20 DUP7 ADD PUSH2 0x10FF JUMP JUMPDEST PUSH2 0x1168 DUP2 PUSH2 0x1129 JUMP JUMPDEST DUP5 ADD SWAP2 POP POP SWAP3 SWAP2 POP POP JUMP JUMPDEST PUSH1 0x0 PUSH2 0x117F DUP4 DUP4 PUSH2 0x113A JUMP JUMPDEST SWAP1 POP SWAP3 SWAP2 POP POP JUMP JUMPDEST PUSH1 0x0 PUSH1 0x20 DUP3 ADD SWAP1 POP SWAP2 SWAP1 POP JUMP JUMPDEST PUSH1 0x0 PUSH2 0x119F DUP3 PUSH2 0x10B7 JUMP JUMPDEST PUSH2 0x11A9 DUP2 DUP6 PUSH2 0x10C2 JUMP JUMPDEST SWAP4 POP DUP4 PUSH1 0x20 DUP3 MUL DUP6 ADD PUSH2 0x11BB DUP6 PUSH2 0x10D3 JUMP JUMPDEST DUP1 PUSH1 0x0 JUMPDEST DUP6 DUP2 LT ISZERO PUSH2 0x11F7 JUMPI DUP5 DUP5 SUB DUP10 MSTORE DUP2 MLOAD PUSH2 0x11D8 DUP6 DUP3 PUSH2 0x1173 JUMP JUMPDEST SWAP5 POP PUSH2 0x11E3 DUP4 PUSH2 0x1187 JUMP JUMPDEST SWAP3 POP PUSH1 0x20 DUP11 ADD SWAP10 POP POP PUSH1 0x1 DUP2 ADD SWAP1 POP PUSH2 0x11BF JUMP JUMPDEST POP DUP3 SWAP8 POP DUP8 SWAP6 POP POP POP POP POP POP SWAP3 SWAP2 POP POP JUMP JUMPDEST PUSH1 0x0 PUSH1 0x20 DUP3 ADD SWAP1 POP DUP2 DUP2 SUB PUSH1 0x0 DUP4 ADD MSTORE PUSH2 0x1223 DUP2 DUP5 PUSH2 0x1194 JUMP JUMPDEST SWAP1 POP SWAP3 SWAP2 POP POP JUMP JUMPDEST PUSH1 0x0 PUSH20 0xFFFFFFFFFFFFFFFFFFFFFFFFFFFFFFFFFFFFFFFF DUP3 AND SWAP1 POP SWAP2 SWAP1 POP JUMP JUMPDEST PUSH1 0x0 PUSH2 0x1256 DUP3 PUSH2 0x122B JUMP JUMPDEST SWAP1 POP SWAP2 SWAP1 POP JUMP JUMPDEST PUSH2 0x1266 DUP2 PUSH2 0x124B JUMP JUMPDEST DUP3 MSTORE POP POP JUMP JUMPDEST PUSH1 0x0 PUSH1 0x20 DUP3 ADD SWAP1 POP PUSH2 0x1281 PUSH1 0x0 DUP4 ADD DUP5 PUSH2 0x125D JUMP JUMPDEST SWAP3 SWAP2 POP POP JUMP JUMPDEST PUSH1 0x0 DUP1 PUSH1 0x40 DUP4 DUP6 SUB SLT ISZERO PUSH2 0x129E JUMPI PUSH2 0x129D PUSH2 0xE04 JUMP JUMPDEST JUMPDEST PUSH1 0x0 PUSH2 0x12AC DUP6 DUP3 DUP7 ADD PUSH2 0xE2F JUMP JUMPDEST SWAP3 POP POP PUSH1 0x20 PUSH2 0x12BD DUP6 DUP3 DUP7 ADD PUSH2 0xE2F JUMP JUMPDEST SWAP2 POP POP SWAP3 POP SWAP3 SWAP1 POP JUMP JUMPDEST PUSH1 0x0 DUP3 DUP3 MSTORE PUSH1 0x20 DUP3 ADD SWAP1 POP SWAP3 SWAP2 POP POP JUMP JUMPDEST PUSH1 0x0 PUSH2 0x12E3 DUP3 PUSH2 0x10E3 JUMP JUMPDEST PUSH2 0x12ED DUP2 DUP6 PUSH2 0x12C7 JUMP JUMPDEST SWAP4 POP PUSH2 0x12FD DUP2 DUP6 PUSH1 0x20 DUP7 ADD PUSH2 0x10FF JUMP JUMPDEST PUSH2 0x1306 DUP2 PUSH2 0x1129 JUMP JUMPDEST DUP5 ADD SWAP2 POP POP SWAP3 SWAP2 POP POP JUMP JUMPDEST PUSH1 0x0 DUP2 ISZERO ISZERO SWAP1 POP SWAP2 SWAP1 POP JUMP JUMPDEST PUSH2 0x1326 DUP2 PUSH2 0x1311 JUMP JUMPDEST DUP3 MSTORE POP POP JUMP JUMPDEST PUSH1 0x0 PUSH1 0x60 DUP3 ADD SWAP1 POP DUP2 DUP2 SUB PUSH1 0x0 DUP4 ADD MSTORE PUSH2 0x1346 DUP2 DUP7 PUSH2 0x12D8 JUMP JUMPDEST SWAP1 POP PUSH2 0x1355 PUSH1 0x20 DUP4 ADD DUP6 PUSH2 0x131D JUMP JUMPDEST PUSH2 0x1362 PUSH1 0x40 DUP4 ADD DUP5 PUSH2 0xE71 JUMP JUMPDEST SWAP5 SWAP4 POP POP POP POP JUMP JUMPDEST PUSH2 0x1373 DUP2 PUSH2 0x124B JUMP JUMPDEST DUP2 EQ PUSH2 0x137E JUMPI PUSH1 0x0 DUP1 REVERT JUMPDEST POP JUMP JUMPDEST PUSH1 0x0 DUP2 CALLDATALOAD SWAP1 POP PUSH2 0x1390 DUP2 PUSH2 0x136A JUMP JUMPDEST SWAP3 SWAP2 POP POP JUMP JUMPDEST PUSH1 0x0 PUSH1 0x20 DUP3 DUP5 SUB SLT ISZERO PUSH2 0x13AC JUMPI PUSH2 0x13AB PUSH2 0xE04 JUMP JUMPDEST JUMPDEST PUSH1 0x0 PUSH2 0x13BA DUP5 DUP3 DUP6 ADD PUSH2 0x1381 JUMP JUMPDEST SWAP2 POP POP SWAP3 SWAP2 POP POP JUMP JUMPDEST PUSH32 0x496E76616C696420706F6C6C0000000000000000000000000000000000000000 PUSH1 0x0 DUP3 ADD MSTORE POP JUMP JUMPDEST PUSH1 0x0 PUSH2 0x13F9 PUSH1 0xC DUP4 PUSH2 0x12C7 JUMP JUMPDEST SWAP2 POP PUSH2 0x1404 DUP3 PUSH2 0x13C3 JUMP JUMPDEST PUSH1 0x20 DUP3 ADD SWAP1 POP SWAP2 SWAP1 POP JUMP JUMPDEST PUSH1 0x0 PUSH1 0x20 DUP3 ADD SWAP1 POP DUP2 DUP2 SUB PUSH1 0x0 DUP4 ADD MSTORE PUSH2 0x1428 DUP2 PUSH2 0x13EC JUMP JUMPDEST SWAP1 POP SWAP2 SWAP1 POP JUMP JUMPDEST PUSH32 0x4E487B7100000000000000000000000000000000000000000000000000000000 PUSH1 0x0 MSTORE PUSH1 0x32 PUSH1 0x4 MSTORE PUSH1 0x24 PUSH1 0x0 REVERT JUMPDEST PUSH32 0x4E487B7100000000000000000000000000000000000000000000000000000000 PUSH1 0x0 MSTORE PUSH1 0x41 PUSH1 0x4 MSTORE PUSH1 0x24 PUSH1 0x0 REVERT JUMPDEST PUSH32 0x4E487B7100000000000000000000000000000000000000000000000000000000 PUSH1 0x0 MSTORE PUSH1 0x11 PUSH1 0x4 MSTORE PUSH1 0x24 PUSH1 0x0 REVERT JUMPDEST PUSH1 0x0 PUSH2 0x14C7 DUP3 PUSH2 0xE0E JUMP JUMPDEST SWAP2 POP PUSH32 0xFFFFFFFFFFFFFFFFFFFFFFFFFFFFFFFFFFFFFFFFFFFFFFFFFFFFFFFFFFFFFFFF DUP3 SUB PUSH2 0x14F9 JUMPI PUSH2 0x14F8 PUSH2 0x148D JUMP JUMPDEST JUMPDEST PUSH1 0x1 DUP3 ADD SWAP1 POP SWAP2 SWAP1 POP JUMP JUMPDEST PUSH1 0x0 DUP3 SWAP1 POP SWAP3 SWAP2 POP POP JUMP JUMPDEST PUSH32 0x4E487B7100000000000000000000000000000000000000000000000000000000 PUSH1 0x0 MSTORE PUSH1 0x22 PUSH1 0x4 MSTORE PUSH1 0x24 PUSH1 0x0 REVERT JUMPDEST PUSH1 0x0 PUSH1 0x2 DUP3 DIV SWAP1 POP PUSH1 0x1 DUP3 AND DUP1 PUSH2 0x1556 JUMPI PUSH1 0x7F DUP3 AND SWAP2 POP JUMPDEST PUSH1 0x20 DUP3 LT DUP2 SUB PUSH2 0x1569 JUMPI PUSH2 0x1568 PUSH2 0x150F JUMP JUMPDEST JUMPDEST POP SWAP2 SWAP1 POP JUMP JUMPDEST PUSH1 0x0 DUP2 SWAP1 POP DUP2 PUSH1 0x0 MSTORE PUSH1 0x20 PUSH1 0x0 KECCAK256 SWAP1 POP SWAP2 SWAP1 POP JUMP JUMPDEST PUSH1 0x0 PUSH1 0x20 PUSH1 0x1F DUP4 ADD DIV SWAP1 POP SWAP2 SWAP1 POP JUMP JUMPDEST PUSH1 0x0 DUP3 DUP3 SHL SWAP1 POP SWAP3 SWAP2 POP POP JUMP JUMPDEST PUSH1 0x0 PUSH1 0x8 DUP4 MUL PUSH2 0x15D1 PUSH32 0xFFFFFFFFFFFFFFFFFFFFFFFFFFFFFFFFFFFFFFFFFFFFFFFFFFFFFFFFFFFFFFFF DUP3 PUSH2 0x1594 JUMP JUMPDEST PUSH2 0x15DB DUP7 DUP4 PUSH2 0x1594 JUMP JUMPDEST SWAP6 POP DUP1 NOT DUP5 AND SWAP4 POP DUP1 DUP7 AND DUP5 OR SWAP3 POP POP POP SWAP4 SWAP3 POP POP POP JUMP JUMPDEST PUSH1 0x0 DUP2 SWAP1 POP SWAP2 SWAP1 POP JUMP JUMPDEST PUSH1 0x0 PUSH2 0x1618 PUSH2 0x1613 PUSH2 0x160E DUP5 PUSH2 0xE0E JUMP JUMPDEST PUSH2 0x15F3 JUMP JUMPDEST PUSH2 0xE0E JUMP JUMPDEST SWAP1 POP SWAP2 SWAP1 POP JUMP JUMPDEST PUSH1 0x0 DUP2 SWAP1 POP SWAP2 SWAP1 POP JUMP JUMPDEST PUSH2 0x1632 DUP4 PUSH2 0x15FD JUMP JUMPDEST PUSH2 0x1646 PUSH2 0x163E DUP3 PUSH2 0x161F JUMP JUMPDEST DUP5 DUP5 SLOAD PUSH2 0x15A1 JUMP JUMPDEST DUP3 SSTORE POP POP POP POP JUMP JUMPDEST PUSH1 0x0 SWAP1 JUMP JUMPDEST PUSH2 0x165B PUSH2 0x164E JUMP JUMPDEST PUSH2 0x1666 DUP2 DUP5 DUP5 PUSH2 0x1629 JUMP JUMPDEST POP POP POP JUMP JUMPDEST JUMPDEST DUP2 DUP2 LT ISZERO PUSH2 0x168A JUMPI PUSH2 0x167F PUSH1 0x0 DUP3 PUSH2 0x1653 JUMP JUMPDEST PUSH1 0x1 DUP2 ADD SWAP1 POP PUSH2 0x166C JUMP JUMPDEST POP POP JUMP JUMPDEST PUSH1 0x1F DUP3 GT ISZERO PUSH2 0x16CF JUMPI PUSH2 0x16A0 DUP2 PUSH2 0x156F JUMP JUMPDEST PUSH2 0x16A9 DUP5 PUSH2 0x1584 JUMP JUMPDEST DUP2 ADD PUSH1 0x20 DUP6 LT ISZERO PUSH2 0x16B8 JUMPI DUP2 SWAP1 POP JUMPDEST PUSH2 0x16CC PUSH2 0x16C4 DUP6 PUSH2 0x1584 JUMP JUMPDEST DUP4 ADD DUP3 PUSH2 0x166B JUMP JUMPDEST POP POP JUMPDEST POP POP POP JUMP JUMPDEST PUSH1 0x0 DUP3 DUP3 SHR SWAP1 POP SWAP3 SWAP2 POP POP JUMP JUMPDEST PUSH1 0x0 PUSH2 0x16F2 PUSH1 0x0 NOT DUP5 PUSH1 0x8 MUL PUSH2 0x16D4 JUMP JUMPDEST NOT DUP1 DUP4 AND SWAP2 POP POP SWAP3 SWAP2 POP POP JUMP JUMPDEST PUSH1 0x0 PUSH2 0x170B DUP4 DUP4 PUSH2 0x16E1 JUMP JUMPDEST SWAP2 POP DUP3 PUSH1 0x2 MUL DUP3 OR SWAP1 POP SWAP3 SWAP2 POP POP JUMP JUMPDEST PUSH2 0x1725 DUP4 DUP4 PUSH2 0x1504 JUMP JUMPDEST PUSH8 0xFFFFFFFFFFFFFFFF DUP2 GT ISZERO PUSH2 0x173E JUMPI PUSH2 0x173D PUSH2 0x145E JUMP JUMPDEST JUMPDEST PUSH2 0x1748 DUP3 SLOAD PUSH2 0x153E JUMP JUMPDEST PUSH2 0x1753 DUP3 DUP3 DUP6 PUSH2 0x168E JUMP JUMPDEST PUSH1 0x0 PUSH1 0x1F DUP4 GT PUSH1 0x1 DUP2 EQ PUSH2 0x1782 JUMPI PUSH1 0x0 DUP5 ISZERO PUSH2 0x1770 JUMPI DUP3 DUP8 ADD CALLDATALOAD SWAP1 POP JUMPDEST PUSH2 0x177A DUP6 DUP3 PUSH2 0x16FF JUMP JUMPDEST DUP7 SSTORE POP PUSH2 0x17E2 JUMP JUMPDEST PUSH1 0x1F NOT DUP5 AND PUSH2 0x1790 DUP7 PUSH2 0x156F JUMP JUMPDEST PUSH1 0x0 JUMPDEST DUP3 DUP2 LT ISZERO PUSH2 0x17B8 JUMPI DUP5 DUP10 ADD CALLDATALOAD DUP3 SSTORE PUSH1 0x1 DUP3 ADD SWAP2 POP PUSH1 0x20 DUP6 ADD SWAP5 POP PUSH1 0x20 DUP2 ADD SWAP1 POP PUSH2 0x1793 JUMP JUMPDEST DUP7 DUP4 LT ISZERO PUSH2 0x17D5 JUMPI DUP5 DUP10 ADD CALLDATALOAD PUSH2 0x17D1 PUSH1 0x1F DUP10 AND DUP3 PUSH2 0x16E1 JUMP JUMPDEST DUP4 SSTORE POP JUMPDEST PUSH1 0x1 PUSH1 0x2 DUP9 MUL ADD DUP9 SSTORE POP POP POP JUMPDEST POP POP POP POP POP POP POP JUMP JUMPDEST PUSH1 0x0 DUP1 REVERT JUMPDEST PUSH1 0x0 DUP1 REVERT JUMPDEST PUSH1 0x0 DUP1 REVERT JUMPDEST PUSH1 0x0 DUP1 DUP4 CALLDATALOAD PUSH1 0x1 PUSH1 0x20 SUB DUP5 CALLDATASIZE SUB SUB DUP2 SLT PUSH2 0x1817 JUMPI PUSH2 0x1816 PUSH2 0x17EB JUMP JUMPDEST JUMPDEST DUP1 DUP5 ADD SWAP3 POP DUP3 CALLDATALOAD SWAP2 POP PUSH8 0xFFFFFFFFFFFFFFFF DUP3 GT ISZERO PUSH2 0x1839 JUMPI PUSH2 0x1838 PUSH2 0x17F0 JUMP JUMPDEST JUMPDEST PUSH1 0x20 DUP4 ADD SWAP3 POP PUSH1 0x1 DUP3 MUL CALLDATASIZE SUB DUP4 SGT ISZERO PUSH2 0x1855 JUMPI PUSH2 0x1854 PUSH2 0x17F5 JUMP JUMPDEST JUMPDEST POP SWAP3 POP SWAP3 SWAP1 POP JUMP JUMPDEST PUSH1 0x0 PUSH2 0x1868 DUP3 PUSH2 0xE0E JUMP JUMPDEST SWAP2 POP PUSH2 0x1873 DUP4 PUSH2 0xE0E JUMP JUMPDEST SWAP3 POP DUP3 DUP3 SUB SWAP1 POP DUP2 DUP2 GT ISZERO PUSH2 0x188B JUMPI PUSH2 0x188A PUSH2 0x148D JUMP JUMPDEST JUMPDEST SWAP3 SWAP2 POP POP JUMP JUMPDEST DUP3 DUP2 DUP4 CALLDATACOPY PUSH1 0x0 DUP4 DUP4 ADD MSTORE POP POP POP JUMP JUMPDEST PUSH1 0x0 PUSH2 0x18AC DUP4 DUP6 PUSH2 0x12C7 JUMP JUMPDEST SWAP4 POP PUSH2 0x18B9 DUP4 DUP6 DUP5 PUSH2 0x1891 JUMP JUMPDEST PUSH2 0x18C2 DUP4 PUSH2 0x1129 JUMP JUMPDEST DUP5 ADD SWAP1 POP SWAP4 SWAP3 POP POP POP JUMP JUMPDEST PUSH1 0x0 PUSH1 0x40 DUP3 ADD SWAP1 POP PUSH2 0x18E2 PUSH1 0x0 DUP4 ADD DUP7 PUSH2 0xE71 JUMP JUMPDEST DUP2 DUP2 SUB PUSH1 0x20 DUP4 ADD MSTORE PUSH2 0x18F5 DUP2 DUP5 DUP7 PUSH2 0x18A0 JUMP JUMPDEST SWAP1 POP SWAP5 SWAP4 POP POP POP POP JUMP JUMPDEST PUSH1 0x0 PUSH1 0x20 DUP3 ADD SWAP1 POP DUP2 DUP2 SUB PUSH1 0x0 DUP4 ADD MSTORE PUSH2 0x191A DUP2 DUP5 DUP7 PUSH2 0x18A0 JUMP JUMPDEST SWAP1 POP SWAP4 SWAP3 POP POP POP JUMP JUMPDEST PUSH32 0x506F6C6C20697320636C6F736564000000000000000000000000000000000000 PUSH1 0x0 DUP3 ADD MSTORE POP JUMP JUMPDEST PUSH1 0x0 PUSH2 0x1959 PUSH1 0xE DUP4 PUSH2 0x12C7 JUMP JUMPDEST SWAP2 POP PUSH2 0x1964 DUP3 PUSH2 0x1923 JUMP JUMPDEST PUSH1 0x20 DUP3 ADD SWAP1 POP SWAP2 SWAP1 POP JUMP JUMPDEST PUSH1 0x0 PUSH1 0x20 DUP3 ADD SWAP1 POP DUP2 DUP2 SUB PUSH1 0x0 DUP4 ADD MSTORE PUSH2 0x1988 DUP2 PUSH2 0x194C JUMP JUMPDEST SWAP1 POP SWAP2 SWAP1 POP JUMP JUMPDEST PUSH32 0x416C726561647920766F74656400000000000000000000000000000000000000 PUSH1 0x0 DUP3 ADD MSTORE POP JUMP JUMPDEST PUSH1 0x0 PUSH2 0x19C5 PUSH1 0xD DUP4 PUSH2 0x12C7 JUMP JUMPDEST SWAP2 POP PUSH2 0x19D0 DUP3 PUSH2 0x198F JUMP JUMPDEST PUSH1 0x20 DUP3 ADD SWAP1 POP SWAP2 SWAP1 POP JUMP JUMPDEST PUSH1 0x0 PUSH1 0x20 DUP3 ADD SWAP1 POP DUP2 DUP2 SUB PUSH1 0x0 DUP4 ADD MSTORE PUSH2 0x19F4 DUP2 PUSH2 0x19B8 JUMP JUMPDEST SWAP1 POP SWAP2 SWAP1 POP JUMP JUMPDEST PUSH32 0x496E76616C6964206F7074696F6E000000000000000000000000000000000000 PUSH1 0x0 DUP3 ADD MSTORE POP JUMP JUMPDEST PUSH1 0x0 PUSH2 0x1A31 PUSH1 0xE DUP4 PUSH2 0x12C7 JUMP JUMPDEST SWAP2 POP PUSH2 0x1A3C DUP3 PUSH2 0x19FB JUMP JUMPDEST PUSH1 0x20 DUP3 ADD SWAP1 POP SWAP2 SWAP1 POP JUMP JUMPDEST PUSH1 0x0 PUSH1 0x20 DUP3 ADD SWAP1 POP DUP2 DUP2 SUB PUSH1 0x0 DUP4 ADD MSTORE PUSH2 0x1A60 DUP2 PUSH2 0x1A24 JUMP JUMPDEST SWAP1 POP SWAP2 SWAP1 POP JUMP JUMPDEST PUSH1 0x0 PUSH2 0x1A72 DUP3 PUSH2 0xE0E JUMP JUMPDEST SWAP2 POP PUSH2 0x1A7D DUP4 PUSH2 0xE0E JUMP JUMPDEST SWAP3 POP DUP3 DUP3 ADD SWAP1 POP DUP1 DUP3 GT ISZERO PUSH2 0x1A95 JUMPI PUSH2 0x1A94 PUSH2 0x148D JUMP JUMPDEST JUMPDEST SWAP3 SWAP2 POP POP JUMP JUMPDEST PUSH32 0x4F776E61626C653A206E6577206F776E657220697320746865207A65726F2061 PUSH1 0x0 DUP3 ADD MSTORE PUSH32 0x6464726573730000000000000000000000000000000000000000000000000000 PUSH1 0x20 DUP3 ADD MSTORE POP JUMP JUMPDEST PUSH1 0x0 PUSH2 0x1AF7 PUSH1 0x26 DUP4 PUSH2 0x12C7 JUMP JUMPDEST SWAP2 POP PUSH2 0x1B02 DUP3 PUSH2 0x1A9B JUMP JUMPDEST PUSH1 0x40 DUP3 ADD SWAP1 POP SWAP2 SWAP1 POP JUMP JUMPDEST PUSH1 0x0 PUSH1 0x20 DUP3 ADD SWAP1 POP DUP2 DUP2 SUB PUSH1 0x0 DUP4 ADD MSTORE PUSH2 0x1B26 DUP2 PUSH2 0x1AEA JUMP JUMPDEST SWAP1 POP SWAP2 SWAP1 POP JUMP JUMPDEST PUSH32 0x4F776E61626C653A2063616C6C6572206973206E6F7420746865206F776E6572 PUSH1 0x0 DUP3 ADD MSTORE POP JUMP JUMPDEST PUSH1 0x0 PUSH2 0x1B63 PUSH1 0x20 DUP4 PUSH2 0x12C7 JUMP JUMPDEST SWAP2 POP PUSH2 0x1B6E DUP3 PUSH2 0x1B2D JUMP JUMPDEST PUSH1 0x20 DUP3 ADD SWAP1 POP SWAP2 SWAP1 POP JUMP JUMPDEST PUSH1 0x0 PUSH1 0x20 DUP3 ADD SWAP1 POP DUP2 DUP2 SUB PUSH1 0x0 DUP4 ADD MSTORE PUSH2 0x1B92 DUP2 PUSH2 0x1B56 JUMP JUMPDEST SWAP1 POP SWAP2 SWAP1 POP JUMP JUMPDEST PUSH32 0x5265656E7472616E637947756172643A207265656E7472616E742063616C6C00 PUSH1 0x0 DUP3 ADD MSTORE POP JUMP JUMPDEST PUSH1 0x0 PUSH2 0x1BCF PUSH1 0x1F DUP4 PUSH2 0x12C7 JUMP JUMPDEST SWAP2 POP PUSH2 0x1BDA DUP3 PUSH2 0x1B99 JUMP JUMPDEST PUSH1 0x20 DUP3 ADD SWAP1 POP SWAP2 SWAP1 POP JUMP JUMPDEST PUSH1 0x0 PUSH1 0x20 DUP3 ADD SWAP1 POP DUP2 DUP2 SUB PUSH1 0x0 DUP4 ADD MSTORE PUSH2 0x1BFE DUP2 PUSH2 0x1BC2 JUMP JUMPDEST SWAP1 POP SWAP2 SWAP1 POP JUMP INVALID LOG2 PUSH5 0x6970667358 0x22 SLT KECCAK256 PUSH12 0xF5DCE9D461299C5E61BD4346 CHAINID 0x29 0xC3 GASPRICE EXP NOT 0xB2 0xCE PUSH2 0xCB2A 0x2E MLOAD SWAP4 0xAF NOT LOG4 NUMBER EXP PUSH5 0x736F6C6343 STOP ADDMOD SGT STOP CALLER "},"methodIdentifiers":{"closePoll(uint256)":"9534e637","createPoll(string,string[])":"7e3d71c3","getOptions(uint256)":"8915b3fb","getTallies(uint256)":"6ce0a9e0","getTotalVotes(uint256)":"2ce35e11","getVotes(uint256,uint256)":"91f36633","owner()":"8da5cb5b","polls(uint256)":"ac2f0074","renounceOwnership()":"715018a6","transferOwnership(address)":"f2fde38b","vote(uint256,uint256)":"b384abef"}}}}}